:020000040800F2
:1000000038A30020A90100083D1B0008891600083C
:10001000391B000895040008CD7500080000000099
:100020000000000000000000000000003D43000848
:10003000F513000800000000AD230008654F00081C
:10004000C3010008C3010008C3010008C301000880
:10005000C3010008C3010008C3010008C301000870
:10006000C3010008C3010008C3010008C301000860
:10007000C3010008C3010008C3010008C301000850
:10008000C3010008C3010008C3010008000000000C
:10009000000000000000000000000000C301000894
:1000A000C3010008C3010008C3010008C301000820
:1000B000C3010008C3010008C3010008C301000810
:1000C000C3010008C3010008C3010008C301000800
:1000D000C30100089D540008C3010008000000008F
:1000E000C3010008C3010008C301000800000000AC
:1000F000000000000000000000000000C301000834
:1001000000000000BD30000859500008C30100087D
:1001100000000000000000000000000000000000DF
:10012000C3010008C3010008C3010008A1110008B1
:10013000C3010008000000000000000000000000F3
:10014000000000000000000000000000692100081D
:10015000C3010008C3010008C3010008AD54000832
:10016000C3010008C30100080000000000000000F7
:10017000000000000000000000000000000000007F
:1001800000000000C30100080000000000000000A3
:10019000C3010008DFF80CD000F096F800480047D3
:1001A000819A000838A30020064880470648004787
:1001B000FEE7FEE7FEE7FEE7FEE7FEE7FEE7FEE717
:1001C000FEE7FEE7F14F0008950100082DE9F05F1A
:1001D0000546002092469B468846064681464024B6
:1001E0001BE0284641464746224600F05CF853464D
:1001F0005A46C01A914110D311461846224600F0C3
:1002000043F82D1A67EB01084F46224601200021D2
:1002100000F03AF817EB00094E41201EA4F101044A
:10022000DFDC484631462A464346BDE8F09F40EAB7
:1002300001039B0703D009E008C9121F08C0042A64
:10024000FAD203E011F8013B00F8013B521EF9D24B
:100250007047D2B201E000F8012B491EFBD2704773
:100260000022F6E710B513460A4604461946FFF782
:10027000F0FF204610BD034611F8012B00F8012BBA
:10028000002AF9D118467047202A04DB203A00FAE8
:1002900002F1002070479140C2F1200320FA03F3DD
:1002A000194390407047202A04DB203A21FA02F0DB
:1002B0000021704721FA02F3D040C2F120029140A0
:1002C0000843194670470000064C074D06E0E068F9
:1002D00040F0010394E8070098471034AC42F6D38D
:1002E000FFF75CFF6CCA00088CCA000870B58C1858
:1002F00010F8015B15F0070301D110F8013B2A113A
:1003000006D110F8012B03E010F8016B01F8016B26
:100310005B1EF9D12B0705D40023521E0DD401F822
:10032000013BFAE710F8013BCB1A921C03E013F8EB
:10033000015B01F8015B521EF9D5A142D8D3002020
:1003400070BD10B501220221082000F065F810BD33
:100350001CB52F48007810B12D48808800B91CBD0D
:100360002B484078E8B92A48808800284DDD284885
:100370000089401C80B2264908814988884244DBB4
:1003800000204FF4FA6104238A06CDE90010082109
:10039000204807F0DBFF00201D490881012048703C
:1003A00033E01B48407801282FD119480089401CB0
:1003B00080B2174908818988884226DB1448C088A2
:1003C000002812DD12484089401C80B21049488143
:1003D000C988884202DB00200D4908700C4800786B
:1003E00018B900200A498880B9E700200849088127
:1003F000487041F658304FF4FA6104238A06CDE97B
:1004000000100821034807F0A1FF00BFA7E7000084
:1004100078230020000002407CB504460D461646B5
:1004200004B97CBD0C4844808580C68000200A4900
:100430000881488148700120087041F658304FF417
:10044000FA6104238A06CDE900100821034807F069
:100450007DFF00BFE5E70000782300200000024098
:100460001CB50020094908700846808810B108466C
:10047000C08850B900204FF4FA6104238A06CDE900
:1004800000100821024807F061FF1CBD78230020FE
:100490000000024000BFFEE710B5044632201649B6
:1004A0000880164809F0C0FA30B1002014490870DD
:1004B00014A007F025F910BD2146104809F0A2FB51
:1004C0000F480078401C0E4908700846007840F23A
:1004D000122188420EDD0020094908700E48B0F94B
:1004E0000200401C052190FBF1F201FB120000B25A
:1004F0000949488000BFDEE76C0000200010014081
:100500003A000020434F4D312044617461206F76E2
:1005100065720D0A000000003C00002000B5ADF53A
:100520000B7D01A808F040FE0021084608F04CFEB3
:100530000DF50B7D00BD70B500254FF4803400E053
:10054000641E24B1802002F08DFD0028F8D014B97B
:100550000325284670BD40F2FF5002F03FFD2846BB
:10056000F8E700002DE9F0410646002748480568F5
:1005700001E04748056805F045000028F9D005F07E
:10058000040030B10327042002F028FD3846BDE8FE
:10059000F08105F0010028B10127012002F01EFDC5
:1005A0003846F4E702F058FDB04202D01027384632
:1005B000EDE740F2FF5002F011FD002002F072FD65
:1005C00004463448204008B93846E0E704F00040CB
:1005D00008B11C20DBE704F0804008B10920D6E711
:1005E00004F0005008B10A20D1E704F0805008B1AF
:1005F0000B20CCE704F0006008B10C20C7E704F042
:10060000806008B10D20C2E704F0807008B10E20B0
:10061000BDE704F4000008B10F20B8E704F480003F
:1006200008B11020B3E704F4001008B11120AEE7C0
:1006300004F4801008B11220A9E704F4002008B1E6
:100640001320A4E704F4802008B114209FE704F4E9
:10065000003008B115209AE704F4803008B1162064
:1006600095E704F4004008B1172090E704F48040B7
:1006700008B118208BE704F4005008B1192086E770
:1006800004F0080008B11A2081E738467FE700002F
:10069000342C014008E0FFFD70B5002510480468C7
:1006A00001E00F48046804F045000028F9D004F088
:1006B000040028B10325042002F090FC284670BDF8
:1006C00004F0010028B10125012002F087FC284632
:1006D000F5E740F2FF5002F081FC2846EFE700000A
:1006E000342C014070B500250B48046801E00A482D
:1006F000046804F045000028F9D004F0040028B193
:100700000325042002F06AFC284670BD40F2FF5029
:1007100002F064FC2846F8E7342C01402DE9F04152
:1007200006460F464FF000082248056801E02148C0
:10073000056805F045000028F9D005F0040038B13F
:100740004FF00308042002F049FC4046BDE8F08168
:1007500005F0010030B14FF00108012002F03EFC2D
:100760004046F3E702F078FCB04203D04FF01008A7
:100770004046EBE740F2FF5002F030FC002002F070
:1007800091FC044604F4604018B9200C38804046BF
:10079000DCE704F4005008B11320D7E704F48040EC
:1007A00008B11020D2E704F4004008B10F20CDE7D3
:1007B0004046CBE7342C014070B500264FF480351D
:1007C0000F48046802E06D1E0D48046804F04500FF
:1007D00008B9002DF7D115B104F0040028B10326A3
:1007E000042002F0FBFB304670BD04F0400028B14D
:1007F0000026402002F0F2FB3046F5E73046F3E7F2
:10080000342C014008B525208DF8000000208DF81B
:10081000020001208DF80300684601F091F947209D
:100820008DF8000005208DF8020001208DF80300EE
:10083000684601F085F908BD70B506460C4604F01F
:100840008000802808D104F07F0000EB800106F5CD
:100850008E7000EBC10507E004F07F0000EB800123
:1008600006F55D7000EBC10504F07F00287004F010
:100870008000C00968702946304606F0B1FA0020B1
:1008800070BD70B506460C4604F08000802808D183
:1008900004F07F0000EB800106F58E7000EBC105CF
:1008A00005E004EB840106F55D7000EBC105002056
:1008B000A87004F07F002870C4F3C0106870294647
:1008C000304606F065FA002070BD70B505460C464E
:1008D00004F08000802805D104F07F01284606F04E
:1008E00079FC02E0284606F04FFC002070BD2DE99F
:1008F000F04106460D4690461F4605F080008028D0
:1009000008D105F07F0000EB800106F58E7000EB4A
:10091000C10407E005F07F0000EB800106F55D7083
:1009200000EBC10405F07F00207005F08000C009D5
:100930006070C4F80880E770607808B12078E080C3
:10094000022F01D1002020712146304606F0D4F953
:100950000020BDE8F0812DE9F04105460E4617461E
:10096000984606F07F0000EB800105F55D7000EB16
:10097000C104E760C4F814800020A061607006F034
:100980007F002070E878012800D12761207820B905
:100990002146284606F0D4F803E02146284606F012
:1009A00080FA0020BDE8F08108B500220092009A8C
:1009B00061F30A12009202691268009B1A430369EC
:1009C0001A6008BD70B506460C4604F08000802809
:1009D00008D104F07F0000EB800106F58E7000EB7B
:1009E000C10505E004EB840106F55D7000EBC1056F
:1009F0000120A87004F07F002870C4F3C010687054
:100A00002946304606F01BFA002070BD2DE9F04162
:100A100007460D461646984605F07F0000EB80011C
:100A200007F58E7000EBC1040120607005F07F00B7
:100A30002070E66026610020A061C4F81480207850
:100A400020B92146384606F07BF803E021463846B7
:100A500006F027FA0020BDE8F0811CB504462046C8
:100A600006F039F8E068C0680090204606F0DCFB2C
:100A700003280BD10020A0704FF40070A0800098D4
:100A800020F4705000F51050009009E00120A07093
:100A90004020A080009820F4705000F5A0500090F5
:100AA0000098E168C86000200190019820F400508F
:100AB00000F5005001900198E168486101201CBDDB
:100AC000F8B50546002400200090284606F0EBFB10
:100AD000064690E006F0010000287DD0E1B22846ED
:100AE00000F002FB0090009800F0010030B30120FC
:100AF00000FA04F72869406BB8432969486300206D
:100B00000090009820F00100401C009005F11800B2
:100B100050F8240000998160E1B2394800684268C9
:100B200028469047E878012808D13CB940F21110D6
:100B3000405D042802D1284606F0ADF80098C0F3C5
:100B4000C00060B100200090009820F0080008303C
:100B5000009005F1180050F8240000998160009879
:100B6000C0F3001060B100200090009820F0100049
:100B70001030009005F1180050F8240000998160B1
:100B80000098C0F3801060B100200090009820F021
:100B900040004030009005F1180050F82400009902
:100BA00081600098C0F3400060B100200090009880
:100BB00020F00200801C009005F1180050F824007D
:100BC000009981600098C0F3C01028B121462846E2
:100BD00000F09EFA002000E00BE00090009820F06A
:100BE00080008030009005F1180050F82400009932
:100BF0008160641C7608002E7FF46CAF0120F8BD84
:100C0000680100207CB504460025002001902046A4
:100C100006F051FB06466FE006F00100002869D09F
:100C2000E9B2204606F04FFB0190019800F0010068
:100C3000C8B300200190019820F00100401C0190F1
:100C400004F1540050F8250001998160E0780128F2
:100C500017D104F1540050F825000069009005EB0D
:100C6000850104F55D7000EBC10080680099C1F357
:100C70001201411A05EB850204F55D7000EBC2001C
:100C80008161E9B21E480068026820469047E0781A
:100C9000012808D13DB940F21110005D052802D1AC
:100CA000204605F0F8FF0198C0F3400060B1002035
:100CB0000190019820F00200801C019004F1540082
:100CC00050F82500019981600198C0F3C00088B1F7
:100CD0000B480068816820468847002001900198F1
:100CE00020F008000830019004F1540050F825006D
:100CF000019981606D1C7608002E8DD101207CBD8C
:100D0000680100203EB50446A07A70B1D4F80C0109
:100D10000090009820F002000090009820F0010060
:100D200000900099D4F80C01016000200190019816
:100D300020F00100401C019020694068019988431F
:100D4000216948600848006881692046884700207A
:100D50000290029820F0004000F1004002900298BA
:100D6000E168486101203EBD680100207CB5044671
:100D700000200190019820F0100010300190E068F0
:100D8000806901998843E1688861E068006A0090A1
:100D9000009800F00F0000EB800104F55D7000EB9F
:100DA000C1050098C0F3434007282DD2DFE800F0CA
:100DB0002C04051D1E2C1F0027E00098C0F30A100C
:100DC00090B10098C0F30A122046E96806F085FA4F
:100DD000E8680099C1F30A110844E860A86900991D
:100DE000C1F30A110844A8610FE00EE00DE00822EB
:100DF00004F2CC51204606F070FAA8690099C1F3BC
:100E00000A110844A86100E000BF00BFE0688069E3
:100E100001990843E168886101207CBD38B504462A
:100E200008480068C1682046884700200090009864
:100E300020F00800083000900098E1684861012027
:100E400038BD0000680100201FB504460020009056
:100E50004FF48970005D0090234800684169204686
:100E6000884720698068019000200390039820F44F
:100E7000006000F5006003900398E1684861A07A83
:100E800070B3019800F0010050B340F21510005DFE
:100E9000012825D19DF80000032821D100200290CF
:100EA000029820F00100401C0290D4F80C01006868
:100EB00002990843D4F80C110860029820F002004F
:100EC000801C0290D4F80C01006802990843D4F801
:100ED0000C1108600548006840F0060003490860EE
:100EE000012004B010BD00006801002010ED00E0FA
:100EF00030B587B00446002002900690059004901B
:100F000003900190029820F00100401C029020699B
:100F1000406802998843216948600021204606F014
:100F200059F900250BE0FF2104F1180050F82500C5
:100F3000816004F1540050F8250081606D1C6078D8
:100F4000A842F0D84FF0FF312069816106986FF315
:100F50000F00401C0690069880B200F58030069085
:100F600006992069C161059820F0080008300590B5
:100F7000059820F00100401C0590059820F0020023
:100F8000801C0590059920694161049820F00100BA
:100F9000401C0490049820F0080008300490049845
:100FA00020F00200801C04900499206901612069EE
:100FB00000680390039820F4FE6003900399206971
:100FC0000160204605F067FE00200190019820F4A2
:100FD000805000F5805001900198E1684861044814
:100FE0000068016920468847012007B030BD000035
:100FF000680100202DE9F04106460F46394630468B
:1010000006F080F901214FF4897081550021801C80
:101010008155002511E005EB850106F58E7000EB8A
:10102000C104012060702570E5800020E070402040
:10103000A0600020E06060616D1C7078A842EAD872
:10104000002510E005EB850106F55D7000EBC1049D
:10105000002060702570E580E0704020A0600020D6
:10106000E06060616D1C7078A842EBD8304605F0F6
:1010700021FD304605F04EFB0021304606F0AAF96E
:10108000304605F0DAFB304606F06DF8BDE8F08139
:1010900038B504460020009007480068C169204622
:1010A0008847009820F4801000F580100090009888
:1010B000E1684861012038BD6801002038B5044668
:1010C0000020009007480068016A20468847009881
:1010D00020F4001000F5001000900098E1684861CD
:1010E000012038BD6801002030B5024615692B6922
:1010F00015696C6B24FA01F505F0010543EAC51387
:1011000002F1180555F82150AD6805EA030030BD1D
:101110002DE9F84307460E4600250020009006EB17
:10112000860107F58E7000EBC104D4E90501451A6C
:10113000A068A84200D2A568E81C4FEA900807F111
:10114000180050F82600806900901BE0D4E90501E2
:10115000451AA068A84200D2A568E81C4FEA90088A
:10116000ABB2F2B23846E16806F05BF9E0682844B9
:10117000E060A0692844A06107F1180050F826003B
:1011800080690090009880B2404506D9D4E90510E6
:10119000884202D260690028D8D10120BDE8F883D6
:1011A00010B502F08FFC10BD0246094B9A4201D2E5
:1011B000084801E00648103801F000531BB1064B07
:1011C0000B40C36002E0044B0B408360704700009B
:1011D00010640240006002407D0F7D0F21B1026863
:1011E00042F00102026003E0026822F001020260A4
:1011F00070470000016821F00101016000210160D9
:1012000041608160C1600161212141614A49884298
:1012100004D13D21484A103A91608CE0464918318A
:10122000884205D14FF47461434A103A916082E0DC
:1012300041493031884205D14FF474113E4A103A89
:10124000916078E03C494831884205D14FF07461A3
:10125000394A103A91606EE037496031884204D1D2
:101260003649354A103AD16065E0334978318842D1
:1012700004D13349304A103AD1605CE02E499031B4
:10128000884204D12F492C4A103AD16053E02A49B0
:10129000A831884205D14FF03D51274A103AD1601C
:1012A00049E02949884204D13D21274A083A116082
:1012B00041E025491831884205D14FF47461224A32
:1012C000083A116037E020493031884205D14FF4A7
:1012D00074111D4A083A11602DE01B4948318842BB
:1012E00005D14FF07461184A083A116023E016499D
:1012F0006031884204D11149134A121F11601AE06B
:1013000011497831884204D10D490F4A121F1160EA
:1013100011E00D499031884204D10A490A4A121F4E
:10132000116008E00849A831884204D14FF03D51CE
:10133000054A121F11607047106002403D000020F6
:10134000400F002000003D201064024021B10268DF
:1013500042F02002026003E0026822F020020260F4
:10136000704710B501F080034BB122B1436943F0DF
:101370008003436103E0436923F0800343618029D4
:101380000BD02AB1036801F01E042343036004E07C
:10139000036801F01E04A343036010BD10B50022D2
:1013A0000268134B1A40CC680B6823434C692343F3
:1013B0008C692343CC6923430C6A23434C6A23433F
:1013C0008C6A23434C6B23438C6B23431A43026088
:1013D000426922F00702D1E90B3423431A434261E8
:1013E0000B6943604B6883608B68C36010BD00006D
:1013F0003F801CF0704700002DE9FC4107460D4678
:101400000026002400200090019008205B4908601D
:1014100010204860402088600020C8604FF4806041
:101420000861084601F09AFE1020FFF79BF8044679
:1014300014B12046BDE8FC815148008800044F49A2
:10144000086037204860402088600020C8604FF462
:1014500080600861084601F081FE3720FFF782F8BE
:1014600004460CB12046E5E74FF0FF3045490860DF
:1014700008204860302088600220C8600020086191
:1014800001204861084601F0C1FD00203B49086089
:1014900033204860402088600020C8604FF480609E
:1014A0000861084601F05AFE3320FFF75BF8044656
:1014B0000CB12046BEE709E04FF4001001F0D2FD68
:1014C00020B101F045FE4DF82600761C2E4800683C
:1014D00040F22A6108400028EED0082001F0C2FD49
:1014E00028B1082001F07AFD04242046A2E702205A
:1014F00001F0B8FD28B1022001F070FD0224204661
:1015000098E7202001F0AEFD28B1202001F066FD13
:10151000062420468EE74FF4007001F0A3FD30B1A1
:101520004FF4007001F05AFD0724204682E740F294
:10153000FF5001F053FD00980006009901F47F412F
:1015400040EA0120009901F47F0140EA112000994E
:1015500040EA1160686001980006019901F47F413A
:1015600040EA0120019901F47F0140EA112001992C
:1015700040EA1160286020465CE70000300F002040
:1015800024000020440F0020342C0140F0B50A460E
:1015900000210023002400BF3DE0012505FA01F3EE
:1015A000156805EA03049C4234D105684F00032600
:1015B000BE40B543056015794E00B5400668354319
:1015C00005601579012D02D01579022D16D1856897
:1015D0004F000326BE40B543856055794E00B540A7
:1015E000866835438560456801268E40B543456071
:1015F000456896798E40B6B235434560C5684F0060
:101600000326BE40B543C560D5794E00B540C668D7
:101610003543C560491C1029BFD3F0BDF0B5002388
:1016200000244D07ED0E02FA05F3CE1000F120055F
:1016300055F826504E07F70E0F26BE40B543CF1083
:1016400000F1200646F82750CE1000F1200555F88D
:10165000265045EA0304CE1000F1200545F8264047
:10166000F0BD0246002013690B400BB1012000E0E1
:101670000020704741837047018370470AB101839E
:1016800000E041837047000009A100200CE00A5CE3
:10169000124B1A8000BF114A121F128802F040023A
:1016A000002AF8D0421CD0B22A28F0D300BFFEE7AF
:1016B0000D0A456E74657220486172644661756CEE
:1016C000745F48616E646C65722C20537973746525
:1016D0006D2048616C742E0D0A0000000414014056
:1016E00000B587B00121022000F028FF0121102061
:1016F00000F054FF072206214A48FFF78FFF072218
:1017000011464848FFF78AFF00208DF81A00012093
:101710008DF81B0002208DF8180040200590022053
:101720008DF8190005A93F48FFF730FF02208DF81A
:1017300018008020059005A93A48FFF727FF4FF4CD
:10174000E13001900020ADF80800ADF80A00ADF8D6
:101750000C00ADF810000C20ADF80E0001A93248C5
:1017600003F01EFF012240F225512F4803F0F2FE44
:1017700001212D4803F0ABFE40212B4803F09EFED3
:101780000121042000F0DAFE0121202000F006FFF4
:10179000082206212548FFF741FF08220721234898
:1017A000FFF73CFF00208DF81A0001208DF81B0088
:1017B00002208DF818004020059002208DF81900B5
:1017C00005A91A48FFF7E2FE02208DF818008020D4
:1017D000059005A91548FFF7D9FE4FF4E1300190B7
:1017E0000020ADF80800ADF80A00ADF80C004FF489
:1017F0004070ADF810000C20ADF80E0001A90C48A7
:1018000003F0CEFE012240F22551094803F0A2FE6A
:101810000121074803F05BFE4021054803F04EFE1E
:1018200007B000BD00040240001001400008024063
:10183000001401400448006800F4005008B9012079
:1018400070470020FCE700001008024010B5044675
:101850000D48007B48B90C48806830B10B480078CF
:1018600018B901212046FFF7ADF881212046FFF786
:10187000A9F806480078022805D11F23024A012151
:101880002046FFF768F810BDE46200207D010020CB
:1018900010B504462B4840682B49486029488068A9
:1018A00088600121204604F000F91F2810D1254846
:1018B0000068264988420BD12248407B012807DC7A
:1018C0002048807B012803DB1E48807B10280CDD2C
:1018D0001C49487B2022052101F0E2F902201C4925
:1018E00008702046FFF7B2FF2AE01648417B00F15E
:1018F0000F02204600F058FF002803DA2046FFF7C9
:10190000A5FF1DE013480078022819D0114800787F
:10191000012815D00F480078032811D00E48008800
:10192000002806DD0C4802880C49204600F0E0F84B
:1019300006E00948008818B90021204600F0B8F8F0
:1019400010BD0000E46200200463002055534243B0
:101950007D0100207C0100207A010020E45200205B
:1019600070B505460C460C480078022807D1812145
:101970002846FFF727F80020074908700BE004F01D
:101980008000802807D104480078012803D0012175
:10199000284600F08DF870BD7D01002070B504462A
:1019A0000D4610480078022804D0032811D00428DE
:1019B00014D10DE00C48417B00F10F02204600F0ED
:1019C000F3FE002803DA0121204600F071F806E05A
:1019D00000BF0021204600F06BF800E000BF00BF10
:1019E00070BD00007C010020E462002070B5044658
:1019F0000D460D48007810B1012812D103E02046B1
:101A0000FFF746FF0EE00948417B00F10F02204638
:101A100000F0CAFE002803DA0121204600F048F851
:101A200000E000BF00BF70BD7C010020E462002028
:101A30000021014A117070477C01002010B5044656
:101A400000200C4908700C4908700C4800680168B7
:101A50000020884701212046FEF737FF81212046DC
:101A6000FEF733FF1F23064A01212046FEF773FFCE
:101A700010BD00007C0100207D010020100100202D
:101A8000E462002010B504460020064908700120D9
:101A9000054908701F23054A01212046FEF75BFF18
:101AA00010BD00007C0100207D010020E4620020C8
:101AB00070B505460C460A480A4908600846047392
:101AC0000020094908700D23064A81212846FEF7A7
:101AD0009DFF1F23054A01212846FEF73CFF70BDEC
:101AE00055534253046300207C010020E46200202F
:101AF00070B506460D4614460C488068A04202D2D6
:101B00000A48806800E0204684B209488068001BCB
:101B1000074988600020087304200649087023469E
:101B20002A4681213046FEF771FF70BDE462002035
:101B3000046300207C01002000BFFEE77047000026
:101B400070B5002100230F22C4781CB3174C246801
:101B500004F4E064C4F5E064C4F30721C1F10404B3
:101B6000E3B20A4144789C40E1B2847814402143B6
:101B70000C07210E0E4C05786155047804F01F0502
:101B80000124AC4005786D11AD0005F1E025C5F8E4
:101B9000004109E0047804F01F050124AC40054D24
:101BA0000678761145F8264070BD00000CED00E087
:101BB00000E400E080E100E002490143024A1160D4
:101BC000704700000000FA050CED00E070B500243D
:101BD00018E004F1B001C8B200F07AFA002000F079
:101BE00077FA102000F074FA002507E0074901EBAE
:101BF000C411485D00F092FA681CC5B2802DF5DB77
:101C0000601CC4B2082CE4DB70BD00005C0F002037
:101C100070B5064600240BE0002505E0074800EB00
:101C2000C4104655681CC5B2802DF7DB601CC4B2D9
:101C3000082CF1DBFFF7CAFF70BD00005C0F00202D
:101C40001CB50121022000F079FC01208DF8040070
:101C500000208DF806008DF8070002208DF80500A1
:101C60000120009069461148FFF790FC4FF40050A6
:101C7000009069460D48FFF789FC4FF40040009042
:101C800069460A48FFF782FC04200090694607482D
:101C9000FFF77CFC0220009069460448FFF776FCC1
:101CA000012002491A3108801CBD000000040240D6
:101CB00010B58D2000F00CFA142000F009FAA420D1
:101CC00000F006FAA62000F003FAAF2000F000FAB8
:101CD00010BD00002DE9FF4FADB01F4600240020CD
:101CE000049087480390388801280DD14FF00C0AE2
:101CF000D1461825022005904FF0010B00200490DA
:101D0000804E7F4803902DE0388868B94FF0100A64
:101D1000D1462025022005904FF0010B00200490B1
:101D2000794E7A4803901DE0388802280DD14FF093
:101D3000180AD1464825032005904FF0020B0120D8
:101D40000490734E734803900CE04FF0200AD14684
:101D50008025042005904FF0020B012004906E4E68
:101D60006E480390C3E02F9800782B902B98802822
:101D700040DA0498012826D14FF0000821E00BFB3F
:101D80000AF0401C00FB08F408F101001FFA80F87B
:101D9000315D2B98814207D1641C0BFB0AF231198B
:101DA0000AA8FEF744FA0DE0305DFF2809D1601C57
:101DB000305CFF2805D1FF2229460AA8FEF749FA20
:101DC00000E0DCE70DE0029505EBD57043100195CE
:101DD0002B9800FB036105EBD57042100AA8FEF7B3
:101DE00026FA484609EBD071C1F347010991CDF8B5
:101DF00018B039E02F98401C2F9000782A902A982C
:101E000000B979E04FF0000828E0A81C08FB00F4B6
:101E100008F101001FFA80F80398015D2B988142B8
:101E20000DD1611C0398415C2A98814207D1A41C02
:101E3000039801192A460AA8FEF7F9F90FE003985A
:101E4000005DFF280AD1611C0398405CFF2805D182
:101E5000FF2229460AA8FEF7FCF900E0D5E700BFFB
:101E6000CDF82490059806902E9807904FF0000822
:101E700031E02D98089000202C9020E0069808FB77
:101E800000F02C9900EBD1000AA9085C2C9901F014
:101E9000070280211141084028B1BA78DDE9071016
:101EA00000F0A8F804E03A79DDE9071000F0A2F8A4
:101EB0000898401C80B208902C98401C2C900999DE
:101EC0002C988842DAD30798401C80B2079008F11A
:101ED00001001FFA80F8D045CBDBF988099801444E
:101EE0002D98084480B22D902F98401C2F902F9849
:101EF000007800287FF437AF00BF31B0BDE8F08F25
:101F0000D4C2000868A800085CAE0008D4C8000865
:101F10005CBE00085EC9000848C00008AAC90008E5
:101F200010B5FFF78DFE322005F0FCFE4FF4005097
:101F30002F4908800420891C0880322005F0F2FE19
:101F400004202B490880AE2000F0C2F8002000F0E9
:101F5000BFF8102000F0BCF8402000F0B9F8812054
:101F600000F0B6F8CF2000F0B3F8A02000F0B0F8F1
:101F7000C02000F0ADF8A12000F0AAF8C82000F0C1
:101F8000A7F8A62000F0A4F8A82000F0A1F83F20B0
:101F900000F09EF8D32000F09BF8002000F098F8A5
:101FA000D52000F095F8802000F092F8D92000F0BC
:101FB0008FF8F12000F08CF8DA2000F089F8122078
:101FC00000F086F8DB2000F083F8402000F080F875
:101FD000202000F07DF8022000F07AF8FFF768FE7C
:101FE0000020FFF715FE0021084600F05BF810BD49
:101FF000180402402DE9FF4780460C46914623A174
:1020000003C9CDE9020123A103C9CDE9000120469E
:10201000E11704EB5171C1F3C70708F0FF061F4831
:1020200000EBC710855DB9F1000F0AD12046E1171A
:1020300004EB5171C910A4EBC1011DF801100D4052
:1020400009E02046E11704EB5171C910A4EBC1016E
:1020500002AA515C0D43114800EBC710855510488A
:102060000078012810D107F1B001C8B200F030F8B3
:1020700006F00F0000F02CF8102101EB161000F014
:1020800027F8284600F04AF8BDE8FF870102040857
:1020900010204080FEFDFBF7EFDFBF7F5C0F0020CC
:1020A0003800002070B504460D46B02101EBE50173
:1020B000C8B200F00DF8102141EA141000F008F841
:1020C00004F00F0141F0010000F002F870BD0000C3
:1020D00008210222104B1A808A021A8015E000F0B3
:1020E00080022AB14FF400420B4B9B1E1A8003E082
:1020F0004FF40042084B1A804FF40052064B9B1ECF
:102100001A809B1C1A804206100E0A1EA1F10103C0
:10211000D9B2E4D1704700001A040240082102221B
:10212000104B1A808A029B1C1A8014E000F0800277
:1021300022B14FF400420B4B1A8004E04FF40042EE
:10214000084B9B1C1A804FF40052064B1A809B1CB4
:102150001A804206100E0A1EA1F10103D9B2E5D180
:10216000704700001804024010B5024803F0FEFD5D
:1021700010BD0000B04C00201CB55249002007F0F3
:1021800023F8514908700846007820B108460178C4
:102190004EA005F0B5FA53A1534807F0FBF84A49A1
:1021A00008700846007828B1084601784FA005F06D
:1021B000A7FA1CBD534954A007F035FA42490870EC
:1021C0000846007818B153A005F09AFA69E000209B
:1021D000FFF71EFD564B4B4A093202210846FFF716
:1021E00079FD4848016853A005F08AFA504B58A27F
:1021F00014210220FFF76EFD4248006842F2107180
:10220000B0FBF1F03030C0B28DF800003D480068FE
:102210004FF47A71B0FBF1F00A21B0FBF1F201FB4F
:10222000120030308DF80100364800686421B0FBA0
:10223000F1F00A21B0FBF1F201FB120030308DF811
:10224000020030480068B0FBF1F0B0FBF1F201FB96
:10225000120030308DF803002A480068B0FBF1F21C
:1022600001FB120030308DF8040000208DF80500CD
:102270002F4B6A4615213720FFF72CFD2148818816
:1022800038A005F03DFA1F48C1883AA005F038FA99
:102290001C480068400A3B4908604FF4FA6005F0AA
:1022A00041FD012218A1384806F0A8FF0649087030
:1022B0000846007818B135A005F022FA79E700BF8A
:1022C00077E70000FC43002078000020B9D2D4D882
:1022D000CEC4BCFECFB5CDB3CAA7B0DC28256429D7
:1022E0000D0A00002F00000058480020B4F2BFAAD9
:1022F000B8F9C4BFC2BCCAA7B0DC282564290D0A3E
:1023000000000000744800204C4544302E62696E85
:1023100000000000526561642066696C65206D6193
:10232000737361676520657272200D0A00000000FA
:10233000400000206E65776E616D652E74787420A4
:1023400073697A65203A20256C750D0A000000003B
:10235000CEC4BCFEB4F3D0A120202020202042799E
:10236000746500006664617465203A2025640D0A76
:10237000000000006674696D65203A2025640D0A2E
:10238000000000007400002030460020446F6E27DB
:10239000742046696E642046696C65203A204C457D
:1023A00044302E62696E0D0A000000007047000084
:1023B00070B515480468001D0568001D06682346B1
:1023C0002A46314611A005F09BF91EA005F098F9A8
:1023D0001DA005F095F92CA12FA005F091F933A1CE
:1023E00033A005F08DF900230822012135A005F066
:1023F00087F942A005F084F942A005F081F912A006
:1024000005F07EF970BD0000107AFF1F0D0A4350E1
:1024100055203A2053544D333246343031524354D0
:10242000362C204C51465036342C20554944203D02
:102430002025303858202530385820253038580D80
:102440000A0000000A0D00002A2A2A2A2A2A2A2A1B
:102450002A2A2A2A2A2A2A2A2A2A2A2A2A2A2A2ADC
:102460002A2A2A2A2A2A2A2A2A2A2A2A2A2A2A2ACC
:102470002A2A2A2A2A2A2A2A2A2A2A2A2A2A2A2ABC
:102480002A2A2A2A2A0D0A0053574420446F776EBD
:102490004C6F6164657200002A20C0FDB3CCC3FBA1
:1024A000B3C62020203A2025730D0A00312E3000BB
:1024B0002A20C0FDB3CCB0E6B1BE2020203A2025B2
:1024C000730D0A002A20B9CCBCFEBFE2B0E6B1BE53
:1024D000203A205625642E25642E25642028535446
:1024E0004D3332463478785F537464506572697046
:1024F000685F447269766572290D0A002A200D0A08
:10250000000000002A20436F7079726967687420A8
:1025100009C4CFBEA9D0C5CFA2B9A4B3CCB4F3D15E
:10252000A7CEDECEFDD1D0BEBFC9FAD4BA20436F4C
:1025300064652046616E0D0A0000000029B1064A5C
:1025400012680243044B1A6004E0034A1268824393
:10255000014B1A60704700003038024029B1064A2A
:1025600012680243044B1A6004E0034A1268824373
:10257000014B1A60704700003438024029B1064A06
:1025800012680243044B1A6004E0034A1268824353
:10259000014B1A60704700004038024029B1064ADA
:1025A00012680243044B1A6004E0034A1268824333
:1025B000014B1A60704700004438024029B1064AB6
:1025C00012680243044B1A6004E0034A1268824313
:1025D000014B1A607047000024380240F0B500211A
:1025E00000220024022500260223324F3F6807F014
:1025F0000C0121B1042905D0082937D105E02E4F5F
:10260000076036E02D4F076033E02A4F3F1F3F68D9
:10261000C7F38056274F3F1F3F6807F03F036EB157
:10262000264FB7FBF3F7DFF88CC0ACF1040CDCF8F5
:1026300000C0CCF3881C07FB0CF40CE01E4FB7FB6A
:10264000F3F7DFF870C0ACF1040CDCF800C0CCF399
:10265000881C07FB0CF4174F3F1F3F68C7F3014767
:102660007F1C7D00B4FBF5F7076002E0124F0760A6
:1026700000BF00BF0F4F3F6807F0F0010909104F7E
:102680007A5C0768D74047600A4F3F6807F4E0511B
:10269000890A0B4F7A5C4768D7408760054F3F68CF
:1026A00007F46041490B064F7A5C4768D740C76022
:1026B000F0BD0000083802400024F40040787D019D
:1026C0008800002070B506460C461546601907497B
:1026D0000968884207D921220521304600F0E0FA36
:1026E0004FF0FF3070BD0020FCE70000D801002053
:1026F00030B504460A46507800F0010010B10E4B88
:1027000007210CE00D480068C06904EBC40500EB2C
:1027100085031879411D1079884200DC1179084839
:10272000018004E0481E81B2585C064D68540029BF
:10273000F8D1002030BD000052CA0008100100206E
:102740007A010020E452002010B502460B46082111
:102750000648018005E0481E81B20548405C054CF2
:1027600060540029F7D1002010BD00007A0100203C
:1027700061CA0008E452002010B502460B46082149
:102780000648018005E0481E81B20548405C054CC2
:1027900060540029F7D1002010BD00007A0100200C
:1027A00059CA0008E452002070B505460E4614468A
:1027B00032480560207823283ED00DDC1A2831D01D
:1027C00005DCB0B1032819D012284ED11BE01B281C
:1027D0001ED01E2849D120E02A283CD004DC252820
:1027E0002FD0282841D131E02F2839D05A283CD188
:1027F0001DE02146304600F079FA70BD2146304692
:1028000000F002FAF9E721463046FFF771FFF4E7DE
:102810002146304600F062FAEFE72146304600F0EC
:102820005DFAEAE721463046FFF7A6FFE5E72146D5
:102830003046FFF789FFE0E72146304600F0A0F977
:10284000DBE72146304600F055F9D6E72146304611
:1028500000F0D8F8D1E72146304600F097FACCE7EF
:102860002146304600F06AFAC7E7202205213046AB
:1028700000F016FA4FF0FF30BFE70000E40100203F
:102880002DE9F041054624480068B0F5805F02D28A
:102890002148006801E04FF4805004461F4800685A
:1028A000B4FBF0F086B21E4800681C490968B0FB12
:1028B000F1F71C48006833463A461B49D0F810C06F
:1028C0002846E047002808DA11220421284600F0B3
:1028D000E7F94FF0FF30BDE8F0812346124A81212D
:1028E00012480068FEF792F80D48006820440C4931
:1028F000086009480068001B074908600C488068A8
:10290000001B0B4988600448006810B9032009497E
:1029100008700020DFE70000E0010020D401002063
:10292000DC01002010010020E4520020E40100201E
:10293000046300207C0100202DE9F04105462A486F
:102940000068B0F5805F02D22748006801E04FF4CC
:102950008050044625480068B4FBF0F086B2244855
:10296000006822490968B0FBF1F722480068334645
:102970003A462149D0F814C02846E047002808DA32
:1029800003220421284600F08BF94FF0FF30BDE808
:10299000F081174800682044154908601248006813
:1029A000001B1149086015488068001B13498860A6
:1029B0000D48006828B9002111480068FFF778F831
:1029C00010E009480068B0F5805F02D20648006850
:1029D00001E04FF4805083B2074A012108480068A3
:1029E000FDF7B9FF0020D2E7E0010020D40100206C
:1029F000DC01002010010020E452002004630020CC
:102A0000E401002070B505460C46334800780028E4
:102A10005AD13248007B00F08000802808D02F492E
:102A2000487B2022052100F03BF94FF0FF3070BDBC
:102A30002B48006881682846884738B13A2202212D
:102A4000284600F02DF94FF0FF30F0E7A07800069F
:102A5000E17840EA0140217940EA012061790843A8
:102A600020490860207AE17940EA01201E49086087
:102A70000846008882B21B4801682846FFF722FEFC
:102A8000002802DA4FF0FF30D1E702201249087027
:102A900014480068154909684843124908601248FB
:102AA00000681249096848430F4908600B4880686C
:102AB0000968884208D00949487B2022052100F096
:102AC000EFF84FF0FF30B2E74FF48050084908802C
:102AD0002846FFF7D5FEAAE77C010020E46200202B
:102AE00010010020DC010020E0010020D4010020C2
:102AF0007A01002070B504460D461C4800681C4A47
:102B00001C4943682046984738B13A2202212046A2
:102B100000F0C6F84FF0FF3070BD16480068401E48
:102B2000000E1549087013480068401E000C4870DC
:102B300010480088401E000A88700E480078401E29
:102B4000C8700B480068000E087109480068000C46
:102B5000487107480088000A887105480078C871E4
:102B60000820064908800020D6E700001001002058
:102B7000D4010020D8010020E45200207A01002076
:102B80007CB505460E46002404E000201B4908558C
:102B9000601C84B20C2CF8DB1948006801AA694655
:102BA00043682846984738B13A220221284600F067
:102BB00077F84FF0FF307CBD08201049C8700098AE
:102BC000401E000E08710098401E000C48710098CD
:102BD000401E000A88710098401EC87102200872C9
:102BE0000198000C48720198000A88720198C87216
:102BF0000C20044908800020DDE70000E45200209A
:102C0000100100207A01002010B50346002204E0E4
:102C100000201E4CA054501CC2B2122AF8DB7020B7
:102C20001A4C20700C20E07119480078194C247857
:102C3000A04221D01848164C247810F83400134CC8
:102C4000A0701548124C247800EBC40040790F4C5A
:102C5000207311480E4C247800EBC40000790B4C13
:102C600060730B480078401C094C207020460078A7
:102C7000042801D1002020701220084C20800879FF
:102C8000122801DC08792080002010BDE4520020C9
:102C9000D0010020D1010020146300207A0100201F
:102CA00030B50C4B0C4C247803F834101302094C4B
:102CB000094D2D7804EBC5046360074B1B785B1C42
:102CC000054C237023461B78042B01D1002323706D
:102CD00030BD000014630020D10100200246002016
:102CE000014B1880704700007A01002070B504463F
:102CF0000D460F48806840B10D49487B20220521D0
:102D0000FFF7CEFF4FF0FF3070BD0A4800688168C2
:102D10002046884738B13A2202212046FFF7C0FFFB
:102D20004FF0FF30F0E700200349088000BFEBE7D9
:102D3000E4620020100100207A01002070B50546F1
:102D40000C46607800F00200022807D124220521F9
:102D50002846FFF7A5FF4FF0FF3070BD08480088F8
:102D600082B2084801682846FFF7ACFC002802DA66
:102D70004FF0FF30F1E700200349088000BFECE787
:102D8000E0010020DC0100207A01002070B505463A
:102D90000C464348007800287BD14248007B00F075
:102DA0008000802808D13F49487B20220521FFF779
:102DB00077FF4FF0FF3070BD3B48006881682846C0
:102DC000884738B13A2202212846FFF769FF4FF0C1
:102DD000FF30F0E734480068C1682846884738B1BA
:102DE000272202212846FFF75BFF4FF0FF30E2E782
:102DF000A0780006E17840EA0140217940EA01200C
:102E00006179084329490860207AE17940EA012084
:102E1000274908600846008882B22448016828468D
:102E2000FFF750FC002802DA4FF0FF30C3E71F48DD
:102E300000682049096848431C4908601C4800682C
:102E40001C49096848431A4908601648806809689F
:102E5000884208D01349487B20220521FFF720FF34
:102E60004FF0FF30A7E701200D49087010480068B7
:102E7000B0F5805F03D20E48006802E009E04FF42D
:102E8000805083B20C4A01210C480068FDF763FDB5
:102E900003E02846FFF750FD8DE700208BE7000098
:102EA0007C010020E462002010010020DC010020F1
:102EB000E0010020D4010020E4520020E4010020C1
:102EC0007CB50546002400200090019000F0EAF84F
:102ED00000F0007010B10E2420467CBD3D490988E9
:102EE00088B26946FEF788FA04460CB12046F4E73A
:102EF000012D36D1019800F4802000282ED03548CD
:102F00000088000434490860372048604020886009
:102F10000020C860A8020861084600F01FF93720A9
:102F2000FDF720FB04460CB12046D6E702202A49D3
:102F3000086006204860402088600020C8604FF488
:102F400080600861084600F009F90620FDF70AFBD9
:102F500004460CB12046C0E72046BEE725242046A3
:102F6000BBE7019800F4803078B31A480088000469
:102F70001949086037204860402088600020C860F8
:102F80004FF480600861084600F0E8F83720FDF74C
:102F9000E9FA04460CB120469FE700200E4908607C
:102FA00006204860402088600020C8604FF48060A0
:102FB0000861084600F0D2F80620FDF7D3FA04466F
:102FC0000CB1204689E7204687E7FFE72524204605
:102FD00083E7000024000020300F00200149086032
:102FE00070470000382C014001490860704700001C
:102FF000382C01400149086070470000A08025423C
:1030000001490860704700008C85254200210B4B68
:1030100002681A601B1D42681A601A1D116821F0AF
:10302000F701D0E902231A4303691A4343691A439B
:103030001143024A0832116070470000242C0140FD
:1030400010B50121C802FFF7B9FA00214FF4006062
:10305000FFF7B4FA10BD000001480068C0B2704725
:10306000102C014001460020034A12680A400AB1B0
:10307000012000E000207047342C01400146002070
:10308000034A12680A400AB1012000E0002070479C
:10309000342C01400248006800F003007047000033
:1030A000002C014008B50146002000900248084469
:1030B00000900098006808BD142C014010B500F085
:1030C00015FD10BD29B1064A12680243044B1A606F
:1030D00004E0034A12688243014B1A607047000003
:1030E0003C2C014000210A4A116847F6FF629143D7
:1030F000027D83681A4343681A43C3681A4303680E
:103100001A4303691A431143014A116070470000D2
:10311000042C014008B54FF4C060FEF74DFD31208E
:103120008DF8000000208DF801008DF802000120CC
:103130008DF803006846FEF703FD3B208DF8000084
:1031400001208DF801006846FEF7FAFC08BD00007A
:103150000148006870470000802C01400021094BA5
:1031600002681A601A1D11686FF30A01D0E9012381
:103170001A43C3681A4303691A431143014A121DD3
:1031800011607047082C0140014908607047000039
:10319000002C014008B5012000909DF8000008BDFA
:1031A00070B50446002520480068032802D1272571
:1031B000284670BD1C48006838B11B4800680128CB
:1031C00003D01948006802282CD1B4F5805F02D1E1
:1031D00027252846EDE7B4F5006F13D10120FFF74E
:1031E0006FFE0546F5B90020104908750860486073
:1031F00088604FF40060C860002008610846FFF74F
:1032000071FF0FE00020FFF75BFE054655B9002077
:1032100006490875086048608860C860086108460B
:10322000FFF760FF2846C4E720000020180F0020A9
:10323000F0B5014600200022BC4B1B7881F85630C7
:10324000BB4B1B88A1F85430BA4B1B681A0E93096C
:103250000B70C2F383034B7002F003038B70B54B0A
:103260001B68C3F30742CA70B24B1B88C3F3072223
:103270000A71B04B1A784A715B681A0E1301CB8041
:10328000AC4B5B68C3F30742CB8843EA1213CB8095
:1032900002F00F030B72A74B9B88C3F30722D309DD
:1032A0004B72C2F380138B72C2F34013CB72C2F322
:1032B00000130B7300234B739C4B1B681BB19B4B80
:1032C0001B68012B4FD193071B0D0B61994B1A798A
:1032D0000B6943EA82030B61964B9B681A0E0B69DC
:1032E00043EA92130B61C2F3C2030B7502F00703AA
:1032F0004B75904B9B68C3F3074253098B75C2F320
:103300008203CB7593075B0F0B768A4B1B89C3F344
:1033100007220B7E43EAD2130B760B695B1C002459
:10332000C1E912340B7ED1E912649B1C012505FA18
:1033300003F3DF17A6FB035C04FB03C306FB0733A1
:10334000C1E912530C7A0123A3400B650027D1E990
:1033500012560B6DA5FB034C06FB03C305FB07339D
:10336000C1E912432DE0714B1B68022B29D1714B2F
:103370001A7993069B0A0B616E4B9B681A0E0B69B8
:1033800043EA02230B616B4B9B68C3F307420B6953
:1033900013430B61674B1B89C3F307220B695B1C4B
:1033A0004FF40074A3FB04344FF480660025A3FBA4
:1033B000067C04FB06C403FB0543C1E912737310CA
:1033C0000B65C2F3801301F8193F93065B0E4B7037
:1033D000584B1A7A4B7843EAD2134B7002F07F03B2
:1033E0008B70544BDB681A0ED309CB70C2F34113B8
:1033F0000B71C2F382034B7193071B0F8B714D4B03
:10340000DB68C3F307428B7943EA92138B71C2F3F3
:103410004013CB7100230B7202F001034B72454B3A
:103420009B89C3F30722D3098B72C2F38013CB723B
:10343000C2F340130B73C2F300134B73C2F3810347
:103440008B7302F00303CB733A4B1A7B53080B7454
:1034500001234B74384B1B681A0ECA741939364B4A
:103460001B68C3F307421402CC85334B1B88C3F39C
:103470000722CB8D1343CB852F4B1A7814060C6390
:103480005B681A0E0B6B43EA02440C632A4B5B68C1
:10349000C3F307420B6B43EA02240C63264B9B8861
:1034A000C3F307220B6B13430B63234B1A793423AB
:1034B0005A54214B9B681A0E35235A541E4B9B6855
:1034C000C3F3074214068C631B4B1B89C3F307220B
:1034D0008B6B43EA02448C63174B1A7A8B6B43EA7B
:1034E00002248C63144BDB681A0E8B6B13438B63C3
:1034F000114BDB68C3F307423C235B5C43EA1214C5
:103500003C235C5413071C0DCC870B4B9B89C3F3E6
:103510000722CB8F1343CB87074B1A7B54084023DA
:103520005C54012441235C54F0BD000020000020C5
:1035300024000020900E0020A00E002008B50020DE
:103540000090FFF727FE012809D1684600F022FC11
:1035500008B1FF2008BD0098C0F34320FAE7FF2020
:10356000F8E710B50424FFF7E9FF0446042C01D165
:10357000002010BDFF2C01D10220FAE70120F8E75E
:1035800008B500200090FFF7C5FD00F069F9FFF7CE
:1035900057FD00F0C7F900909DF8000010B19DF8AC
:1035A000000008BD00F030F800909DF8000010B158
:1035B0009DF80000F5E70020114908750860486093
:1035C0008860C86008610846FFF78CFD0D48FFF76A
:1035D0002FFE00909DF8000030B90A49B1F8541050
:1035E000080400F0BDFB00909DF8000020B94FF4E6
:1035F0000060FFF7D5FD00909DF80000D1E70000C6
:10360000180F0020C00E002038B5002401200090C3
:10361000FFF740FD10B92524204638BD4448006816
:10362000042828D000204349086002204860C020B8
:1036300088600020C8604FF4806008610846FFF78A
:103640008DFDFDF729F804460CB12046E5E7002082
:10365000FFF728FD384908600420FFF723FD3649AD
:1036600048600820FFF71EFD334988600C20FFF7F3
:1036700019FD3149C8602E48006858B12C480068CF
:10368000012807D02A480068062803D02848006887
:10369000022816D1002027490860032048604020F6
:1036A00088600020C8604FF4806008610846FFF71A
:1036B00055FD69460320FDF731F804460CB120465C
:1036C000ABE71B48006804282ED0BDF800001B495A
:1036D0000860BDF800000004164908600920486031
:1036E000C02088600020C8604FF4806008610846F0
:1036F000FFF734FDFCF7D0FF04460CB120468CE701
:103700000020FFF7CFFC0E4908600420FFF7CAFC39
:103710000B4948600820FFF7C5FC094988600C2068
:10372000FFF7C0FC0649C8600024204675E700008A
:1037300020000020300F0020A00E002024000020D8
:10374000900E002030B58FB004460D464FF0FA5170
:103750001D48FDF729FD00211B48FDF73FFD1A48D4
:10376000FDF748FD4FF0006000901848019002946A
:1037700000200390049005904FF480600690800034
:10378000079080000890002009904FF440300A9084
:1037900004200B9003200C904FF400000D9080103B
:1037A0000E9069460848FDF7F9FD012210210648F0
:1037B000FDF7D7FD20210448FDF7C8FD012102488F
:1037C000FDF70CFD0FB030BD58640240802C014065
:1037D00030B58FB004460D464FF0FA511E48FDF744
:1037E000E3FC00211C48FDF7F9FC1B48FDF702FD36
:1037F0004FF000600090194801900294402003901F
:103800000020049005904FF480600690800007909F
:1038100080000890002009904FF440300A90042066
:103820000B9003200C904FF400000D9080100E9030
:1038300069460948FDF7B2FD012210210648FDF74F
:1038400090FD20210448FDF781FD01210248FDF78C
:10385000C5FC0FB030BD000058640240802C014010
:103860001CB501211C20FEF769FE0C2208212A4804
:10387000FDF7D4FE0C2209212748FDF7CFFE0C22CC
:103880000A212548FDF7CAFE0C220B212248FDF72C
:10389000C5FE0C2211462048FDF7C0FE0C22022175
:1038A0001E48FDF7BBFE4FF47060009001208DF8BC
:1038B000050002208DF8040000208DF8060001208C
:1038C0008DF8070069461448FDF760FE042000905B
:1038D00069461248FDF75AFE4FF4805000900020D0
:1038E0008DF8070069460C48FDF750FE0420009053
:1038F00000208DF8040001208DF807006946084873
:10390000FDF744FE0121C802FEF748FE01218805AB
:10391000FEF714FE1CBD000000080240000C02402F
:1039200000100240F8B50020009000250024002679
:10393000002776205F49087500200860486088608D
:10394000C86008610846FFF7CDFB0320FFF71CFCA9
:103950000120FFF74FFB002057490860486088604E
:10396000C8604FF4806008610846FFF7F7FBFCF77A
:10397000E2FD00909DF8000010B19DF80000F8BD38
:103980004FF4D5704C49086008204860402088609A
:103990000020C8604FF4806008610846FFF7DEFB36
:1039A000FCF70AFF00909DF8000020B90120434970
:1039B0000860870712E000203F4908603720486010
:1039C000402088600020C8604FF48060086108468D
:1039D000FFF7C4FB3720FCF7C5FD009000203649F7
:1039E000086037204860402088600020C8604FF49D
:1039F000806008610846FFF7B1FB3720FCF7B2FD95
:103A000000909DF80000002851D13BE000202A4999
:103A1000086037204860402088600020C8604FF46C
:103A2000806008610846FFF799FB3720FCF79AFD94
:103A300000909DF8000010B19DF800009FE720481D
:103A400038431D49086029204860402088600020D4
:103A5000C8604FF4806008610846FFF77FFBFCF701
:103A600041FE00909DF8000010B19DF8000086E72F
:103A70000020FFF717FB0546012080EAD57080F093
:103A80000106641C1EB94FF6FF708442BED34FF688
:103A9000FF70844204D31B2000909DF800006EE765
:103AA00005F08040051E02D00220044908609DF800
:103AB000000064E7180F0020300F002020000020D5
:103AC0000000108010B50748006800F0C05040B1F9
:103AD0000120054908604FF0C25102485830FDF7F7
:103AE00063FB10BD006402403400002010B54FF4A9
:103AF0008070FFF7C3FA50B10020254908704FF4D9
:103B00008070FFF771FA01202249086037E0022037
:103B1000FFF7B4FA30B10220FFF766FA02201C4921
:103B200008702CE00820FFF7A9FA30B10820FFF751
:103B30005BFA04201649087021E02020FFF79EFA66
:103B400030B12020FFF750FA06201149087016E026
:103B50001020FFF793FA30B11020FFF745FA052047
:103B60000B4908700BE04FF40070FFF787FA30B193
:103B70004FF40070FFF738FA07200549087000215C
:103B80004CF23A30FFF79EFA0148007810BD000071
:103B90002C000020300000202DE9F04107460D46A2
:103BA0001446002600202D4908702D4908602D4933
:103BB00008602D4908602D480068022801D10402E0
:103BC0006D0A2B4804601020294948604020886015
:103BD0000020C8604FF4806008610846FFF7BEFA15
:103BE0001020FCF7BFFC064616B13046BDE8F08158
:103BF0004FF0FF301F4908600846446090208860FD
:103C00000220C86000200861012048610846FFF7D3
:103C1000FDF917480560112015494860402088606B
:103C20000020C8604FF4806008610846FFF796FAEC
:103C30001120FCF797FC06460EB13046D6E701216D
:103C400040F22A30FFF73EFA0120FFF7D9F921466A
:103C50003846FFF777FD3046C8E700002C0000200B
:103C600030000020280000202C2C014020000020E3
:103C7000300F0020440F00202DE9F04180460D4612
:103C800014461E46002700202E4908702E49086061
:103C900001202E49086000202D4908602D48006849
:103CA000022801D104026D0A2B48046010202A4921
:103CB0004860402088600020C8604FF48060086140
:103CC0000846FFF74BFA1020FCF74CFC074617B1EB
:103CD0003846BDE8F0814FF0FF302049086006FB10
:103CE00004F04860902088600220C86000200861CD
:103CF000012048610846FFF789F91748056012203E
:103D000015494860402088600020C8604FF48060FA
:103D100008610846FFF722FA1220FCF723FC074649
:103D20000FB13846D5E7012140F22A30FFF7CAF932
:103D30000120FFF765F906FB04F14046FFF702FD9D
:103D40003846C6E72C000020300000202800002064
:103D50002C2C014020000020300F0020440F0020B8
:103D600070B5044600250A480460072008494860E9
:103D7000402088600020C8604FF4806008610846D9
:103D8000FFF7ECF90720FCF7EDFB0546284670BD70
:103D9000300F002070B50446002514B926252846AA
:103DA00070BD0F48008800040E4908600D2048606F
:103DB000402088600020C8604FF480600861084699
:103DC000FFF7CCF90D20FCF7CDFB05460DB12846D9
:103DD000E6E70020FFF766F920602846E0E70000EC
:103DE00024000020300F002010B5002400200A49D4
:103DF00008600C204860402088600020C8604FF4B4
:103E0000806008610846FFF7A9F90C20FCF7AAFBBF
:103E10000446204610BD0000300F002070B500257C
:103E20006C1E00E0641E1848006838B91748006826
:103E300020B91748007808B9002CF3D100201249A6
:103E40000860441E00E0641E1248006800F4005040
:103E500008B1002CF7D110480068012805D1FFF700
:103E6000C3FF054600200C4908600CB905B90425BC
:103E700040F2FF50FFF7B2F80548007810B104484F
:103E8000007870BD2846FCE7340000203000002098
:103E90002C000020342C01402800002070B50025A3
:103EA0006C1E00E0641E1848006838B917480068A6
:103EB00020B91748007808B9002CF3D10020124926
:103EC0000860441E00E0641E1248006800F4805040
:103ED00008B1002CF7D110480068012805D1FFF780
:103EE00083FF054600200C4908600CB905B904257C
:103EF00040F2FF50FFF772F80548007810B104480F
:103F0000007870BD2846FCE7340000203000002017
:103F10002C000020342C0140280000202DE9F04125
:103F200007460D461446002600202C4908702C49EF
:103F300008602C4908602C4908602C480068022859
:103F400001D104026D0A2A48046010202849486003
:103F5000402088600020C8604FF4806008610846F7
:103F6000FFF7FCF81020FCF7FDFA064616B13046C4
:103F7000BDE8F0811E48056018201D4948604020BA
:103F800088600020C8604FF4806008610846FFF731
:103F9000E5F81820FCF7E6FA06460EB13046E7E7EA
:103FA0004FF0FF3013490860084644609020886055
:103FB0000020C8600861012048610846FFF726F824
:103FC000012140F22A30FFF77DF821463846FFF7FD
:103FD000FFFB0120FFF714F83046C9E72C00002052
:103FE00030000020280000202C2C01402000002060
:103FF000300F0020440F00202DE9F04180460F468D
:1040000015461E46002400204549087045490860B1
:104010000120454908600020444908604448006880
:10402000022801D105027F0A42480560102041495B
:104030004860402088600020C8604FF480600861BC
:104040000846FFF78BF81020FCF78CFA044614B1F1
:104050002046BDE8F08138480088000435490860F2
:1040600037204860402088600020C8604FF480609E
:1040700008610846FFF772F83720FCF773FA044628
:104080000CB12046E5E72B48066017202949486017
:10409000402088600020C8604FF4806008610846B6
:1040A000FFF75CF81720FCF75DFA04460CB12046D8
:1040B000CFE72048076019201E49486040208860EB
:1040C0000020C8604FF4806008610846FFF746F89A
:1040D0001920FCF747FA04460CB12046B9E74FF027
:1040E000FF301649086006FB05F0486090208860A4
:1040F0000020C8600861012048610846FEF786FF7D
:10410000012140F22A30FEF7DDFF0120FEF778FFA3
:1041100006FB05F14046FFF75BFB204699E70000F0
:104120002C00002030000020280000202C2C014012
:1041300020000020300F002024000020440F002029
:1041400010B5FFF71DFA04460CB9002010BD02207F
:10415000FCE721B1028842F04002028004E00288BC
:104160004FF6BF731A400280704702460020138941
:104170000B400BB1012000E0002070470146888908
:1041800070478181704710B50022028802F44152C5
:104190000B884C8823438C882343CC8823430C8989
:1041A00023434C8923438C892343CC8923431A43DB
:1041B0000280838B4FF2FF74234083830B8A038238
:1041C00010BD00002DE9F04180460C4615460CA0BC
:1041D00003F096FAFFF7C5F918B14FF0FF30BDE8CC
:1041E000F0814FF4007028600C484FF400720023F7
:1041F000D0E912613046FBF7E9FF20600020EEE7CE
:104200003E2053442053544F524147455F47657405
:1042100043617061636974790D0A0000C00E00206B
:104220000020704710B50446FFF7AAF910B14FF00F
:10423000FF3010BD02A003F063FA0020F9E7000090
:104240003E2053442053544F524147455F496E69C5
:1042500074204F6B0D0A000010B504460A4890F90F
:104260000000002804DAFFF78BF9002006490870E7
:10427000FFF777F928B1FF20034908704FF0FF30AE
:1042800010BD0020FCE700001801002010B5044616
:1042900002A003F035FA002010BD00003E20535468
:1042A0004F524147455F4973577269746550726F49
:1042B0007465637465640D0A000000002DE9F04127
:1042C00007460C4615461E46690233464FF40072F7
:1042D0002046FFF7D1FC18B14FF0FF30BDE8F08168
:1042E000FFF79CFD00BFFFF73CF90028FBD102A0BF
:1042F00003F006FA0020F1E7720000002DE9F0411A
:1043000007460C4615461E46690233464FF40072B6
:104310002046FFF771FE18B14FF0FF30BDE8F08185
:10432000FFF7BCFD00BFFFF71CF90028FBD102A07E
:1043300003F0E6F90020F1E77700000070472DE96F
:10434000F04106460F4600250BE03946304600F0A6
:104350000DF80446022C02D02046BDE8F081681C0E
:10436000C5B2012DF1DB2046F7E700002DE9F0474B
:1043700080468A464FF000090025012000F072FDBA
:1043800008F00106304600F06DFD3544C8F34006E4
:10439000304600F067FD3544C8F38006304600F033
:1043A00061FD3544C8F3C006304600F05BFD35447E
:1043B00005F00105284600F055FD002000F052FDF3
:1043C000012000F04FFD7348006820F440607149FF
:1043D0000860084600680860012402E000F00AFD59
:1043E000641E002CFAD100BF07E000F029FD06464C
:1043F00006FA04F040EA0909641C032CF5D3B9F16C
:10440000010F06D0B9F1020F7CD0B9F1040F6ED1C3
:1044100079E008F00200002831D000270025202490
:1044200009E000F00DFD064606F0010005447F0896
:1044300047EAC677641E002CF3D100F001FD064662
:1044400085EA060000F0010008B14FF00809BAF152
:10445000000F01D0CAF80070012402E000F0CAFC8D
:10446000641E002CFAD14B48006820F44060494992
:1044700008600846006840F48060086025E0012478
:1044800002E000F0B7FC641E002CFAD1414800683D
:1044900020F440603F4908600846006840F48060AE
:1044A0000860DAF800700025202408E007F0010019
:1044B00000F0D8FC07F0010005447F08641E002CC2
:1044C000F4D105F0010000F0CDFC3248006820F482
:1044D0004060304908600846006840F48060086029
:1044E00020212C48FDF7C8F8002405E00AE02DE063
:1044F000002000F0B7FC641C082CF9D309F0FF0081
:10450000BDE8F08700BF00BF012402E000F072FCAC
:10451000641E002CFAD11F48006820F440601D4939
:1045200008600846006840F48060086000BF2021F1
:104530001848FDF7A1F800BF03E0002000F092FC4E
:10454000641C082CF9D309F0FF00D9E700BF00BFB5
:10455000222402E000F04EFC641E002CFAD10D482B
:10456000006820F440600B4908600846006840F489
:104570008060086020210748FDF77EF800BF03E057
:10458000002000F06FFC641C082CF9D309F0FF0038
:10459000B6E700000004024070B50020FDF738FBCC
:1045A0004F4B50A202210846FDF794FB00F0E2F8C1
:1045B0005048006805F074FF494B4FA212210220B9
:1045C000FDF788FB05F03CFF454B4EA2222102205F
:1045D000FDF780FB002415E020464FF480624E4931
:1045E00000F0D9F9002505E04B48415D4BA003F0F0
:1045F00087F86D1CB5F5806FF6D34AA003F080F8FC
:1046000004F5806449480068A042E5D800242FE002
:10461000FF224FF480614648FBF71BFE304B45A25A
:1046200030210220FDF756FB464B4FF48062404993
:10463000454804F0E7FE002505E03D48415D37A010
:1046400003F05EF86D1CB5F5806FF6D335A003F06E
:1046500057F821463DA003F053F832A003F050F87C
:1046600020464FF48062324905F08EFF04F58064E5
:104670002E480068A042CBD8002415E020464FF415
:104680008062254900F087F9002505E02248415D58
:1046900022A003F035F86D1CB5F5806FF6D321A08C
:1046A00003F02EF804F5806420480068A042E5D8A5
:1046B000062000F0C1F90020FDF7AAFA084B26A257
:1046C00002210846FDF706FB054B26A21221022017
:1046D000FDF700FB002026490870FBF71FFF70BDA7
:1046E00040000020BDF8C8EBC9FDBCB6C4A3CABDDC
:1046F0000000000084000020BFAACABCC9FDBCB6EF
:1047000000000000CBF9D3D0C9C8C7F8B2C1B3FDCF
:10471000B3C9B9A6000000008C48002025303258EB
:10472000200000000D0A0D0A0D0A00007448002048
:10473000FC3F0020BFAACABCD0B4C8EB466C617372
:10474000680000007C000020304600206164647234
:104750003A25640D0A000000C9FDBCB6B3C9B9A66C
:1047600000000000CCF8D7AAD3C3BBA7C7F800004D
:104770006A0000201CB50020019003F0B1FD00F09C
:104780003DF86946002000F0D3F808B101201CBDB7
:1047900014A0009902F0B4FF1E21002000F0CCFA12
:1047A0000021082000F0C8FA0021082000F0C4FA17
:1047B0004FF0A041042000F0BFFA00BF01A904207F
:1047C00000F0B6F808B90020E1E7019800F02040B9
:1047D000B0F1204FF2D10849042000F0ADFA0020DA
:1047E000D5E7000044505F4944434F44453A307890
:1047F00025580D0A00000000000F005010B52021C0
:104800001048FCF739FF002402E000F0F3FA641CC2
:10481000382CFAD34EF29E7000F0EEF8002402E03D
:1048200000F0E8FA641C382CFAD320210548FCF784
:1048300021FF002402E000F0DDFA641C102CFAD302
:10484000002010BD000402402DE9F05F804689463B
:10485000154615B90020BDE8F09F00244FEA950BDE
:104860001A49002000F0E2F92044C4B24146042075
:1048700000F0DCF92044C4B20CB12046EBE74FF065
:104880000F0A49465046FFF75AFD012801D0012082
:10489000E1E700260AE049465046FFF750FD0128AF
:1048A00001D00120D7E709F10409761C5E45F2D357
:1048B0004FF00E0A00215046FFF741FD0746012F39
:1048C00001D1002400E001242046C4E75200002367
:1048D0002DE9F04106460F4600254FF4FA7831469F
:1048E000124800F061FA10B10120BDE8F081002506
:1048F0000DE039460D48001F00F058F808B10120BE
:10490000F3E7386800F4803000B102E06D1C4545E3
:10491000EFDB00BF454501D10120E6E739460348FA
:10492000001D00F043F804462046DEE7F4ED00E009
:104930002DE9F04105460E4605F00C0040F0020757
:1049400031463846FFF7FBFC8046B8F1010F01D134
:10495000002400E001242046BDE8F0812DE9F0416B
:1049600005460E462946042000F060F90F2731461F
:104970003846FFF7E4FC80460E2731463846FFF7FD
:10498000DEFC8046B8F1010F01D1002400E00124D3
:104990002046BDE8F08170B504460D461646324605
:1049A0002946204605F0FAFB70BD000070B50446AC
:1049B0000D460549002000F039F929462046FFF749
:1049C000CDFF0646304670BD52000023F8B50446C0
:1049D0000D460849002000F029F969462046FFF7F6
:1049E000BDFF0646A007C10E0098C840287030469B
:1049F000F8BD00005000002370B50446002506E015
:104A000004F0010000F02EFA6410681CC5B2102DED
:104A1000F6DB70BD10B504464CB90548006800F4DB
:104A2000E060044A1043011D014800F0BDF910BDCB
:104A30000CED00E00000FA0538B504460225062C0E
:104A400001D003F04DFC072C6FD2DFE804F004170F
:104A500008656F92AD000120FFF7DCFFB0E0012098
:104A6000FFF7D8FF142003F05DF90020FFF7D2FF15
:104A7000142003F057F900F0C9F9A1E0FFF77AFE1E
:104A800008B1012038BD50A002F03AFE11E0681EC6
:104A900040B2051E01DC0120F4E70120FFF7BAFF58
:104AA000142003F03FF90020FFF7B4FF142003F0B7
:104AB00039F94949494800F077F90028E7D101213F
:104AC00046480C3000F070F908B10120DAE744A044
:104AD00002F016FE0120FFF79DFF142003F022F9DB
:104AE0000020FFF797FF142003F01CF900BF694670
:104AF0003A48FFF75BFF08B10120C3E7009800F4D4
:104B000000300028F3D0002134480C3000F04CF97C
:104B100008B90020B6E753E02F49491E2F4800F09E
:104B200043F908B10120ADE74AE048E0FFF766FE2F
:104B300008B10120A6E71E21002000F0FDF808B111
:104B400001209FE70021082000F0F6F808B10120BD
:104B500098E74FF0A041042000F0EEF808B10120E2
:104B600090E71D491D4800F01FF908B1012089E7B1
:104B700026E0FFF7FFFD08B1012083E71649891CF5
:104B8000164800F011F908B101207BE700BF694623
:104B90001248FFF70BFF08B1012073E7009800F4FB
:104BA00000300028F3D00BE00B49491E0B4800F001
:104BB000FBF808B1002065E700F028F900E000BF2D
:104BC00000BF00205EE7000053574A5F496E6974DA
:104BD00044656275670D0A0001005FA0F0ED00E01A
:104BE000456E61626C652068616C74206F6E207226
:104BF000657365740D0A000038B50A4D00240DE098
:104C000069460948FFF7D2FE08B1012038BD009877
:104C100000F4003008B10020F8E7641CAC42EFD388
:104C20000820F3E740420F00F0ED00E02DE9F347E4
:104C3000044604F07F4804F0F00948EA090108201E
:104C400000F07AF810B10120BDE8FC8704F00C00F8
:104C500040F0010601A93046FFF771FB07460E261A
:104C600000213046FFF76BFB0746012F01D10025DD
:104C700000E001252846E7E72DE9F05F80468946F8
:104C8000154615B90020BDE8F09F00244FEA950BAA
:104C900016490020FFF7CAFF2044C4B24146042051
:104CA000FFF7C4FF2044C4B20CB12046EBE74FF03D
:104CB0000D0A00260AE049465046FFF740FB01284E
:104CC00001D00120DFE709F10409761C5E45F2D32B
:104CD0004FF00E0A00215046FFF731FB0746012F27
:104CE00001D1002400E001240020CCE75200002381
:104CF00073B5044600254FF4FA760E48019900F08A
:104D000053F844F480310B48001F00F04DF800BF09
:104D10000BE001A907480838FFF748FE019800F4A6
:104D2000803008B100207CBD6D1CB542F1DB012054
:104D3000F9E70000F8ED00E02DE9F341054605F044
:104D40000C0601A93046FFF7FAFA0746012F01D1F8
:104D5000002400E001242046BDE8FC812DE9F34158
:104D6000054629460420FFF761FF0D2601A93046BC
:104D7000FFF7E5FA07460E2600213046FFF7DFFA77
:104D80000746012F01D1002400E001242046BDE8A0
:104D9000FC8170B504460D4616463246294620462B
:104DA00005F07AFA70BD000070B504460D4605495D
:104DB0000020FFF73BFF29462046FFF7CFFF0646BE
:104DC000304670BD520000232DE9F04104460D46E7
:104DD00007490020FFF72AFFA007C00E05FA00F6DA
:104DE00031462046FFF7BAFF07463846BDE8F08156
:104DF0005000002310B510210348FCF73BFC1021A4
:104E00000148FCF739FC10BD000402401CB501212B
:104E10000820FDF793FB3020009000208DF804005F
:104E20008DF8060003208DF8050000208DF807009E
:104E300069460248FCF7AAFB1CBD000000040240C2
:104E400010B510210648FCF715FC20210448FCF79A
:104E500008FC044610210248FCF70EFC204610BD59
:104E60000004024010B50446E2B220210248FCF7DB
:104E700005FCFFF7BFFF10BD000402400CB5002089
:104E8000019000903348006840F480303149086058
:104E900000BF3048006800F4003000900198401CCA
:104EA0000190009818B90198B0F5A04FF1D12948A8
:104EB000006800F4003010B10120009001E00020F3
:104EC00000900098012844D122484030006840F00A
:104ED00080502049403108601F48006840F440403D
:104EE0001D4908601B48083000681A4908310860ED
:104EF0000846006808600846006840F48050086072
:104F00001648091F0860081F006840F08070091FDC
:104F1000086000BF0F48006800F000700028F9D05A
:104F200040F202700E4908600A480830006820F01C
:104F300003000849083108600846006840F0020094
:104F4000086000BF03480830006800F00C00082823
:104F5000F8D10CBD003802400070004019544107E0
:104F6000003C024010B500F001F810BD10B51B4820
:104F7000006840B119480068401E1849086010B91F
:104F8000012017490870002408E004EB4401154A89
:104F900002EB810003F0ACFA601CC4B2042CF4DB19
:104FA00011480068401C10490860084600686FF00E
:104FB0000041884202D100200B49086003F06EF9DD
:104FC0000A480078401CC0B2084908700A2803DB70
:104FD0000020087003F05AF910BD00000000002006
:104FE00004000020600E0020080000201C000020AB
:104FF00010B51548006840F4700013490860134864
:10500000006840F001001149086000200F49083194
:1050100008600E4800680E4908400C4908600D48B9
:10502000091D0860081F006820F48020091F08601F
:10503000002006490C310860FFF720FF4FF00060A8
:1050400001498039086010BD88ED00E00038024059
:10505000FFFFF6FE1030002410B50221214800F0B9
:1050600075F858B102211F4800F052F800220221C1
:105070001C4800F07CF81C4800688047042119484F
:1050800000F064F858B10421164800F041F80022FD
:105090000421144800F06BF8144800688047082188
:1050A000104800F053F858B108210E4800F030F8CD
:1050B000002208210B4800F05AF80D48006880478C
:1050C0001021084800F042F858B11021054800F0BE
:1050D0001FF800221021034800F049F80548006835
:1050E000804710BD000C00400C0000201000002084
:1050F000140000201800002021B1028842F0800234
:10510000028004E002884FF67F731A4002807047E5
:10511000CA430282704721B1028842F00102028034
:1051200004E002884FF6FE731A400280704731B1E6
:10513000B0F8442042F40042A0F8442005E0B0F862
:105140004420C2F30E02A0F84420704730B5024656
:10515000002000230024158A05EA0103958905EA49
:10516000010413B10CB1012000E0002030BD1AB1E0
:1051700083890B43838102E083898B43838170475A
:1051800070B5002400220023058C4FF6FE763540D2
:105190000584028C8388048B4FF68F752C40B51ED6
:1051A0002C400D882C43751E2A408D892A434D883A
:1051B0002A43104DA84202D00F4DA84213D14FF6FA
:1051C000F7752A40CD892A434FF6FB752A408D8812
:1051D0002A434FF6FF652B404FF6FF552B400D8AB3
:1051E0002B434D8A2B43838004838D68456302845F
:1051F00070BD000000000140000401400A4600218B
:10520000018B4FF6F773194011430183704700007B
:1052100070B5002400220023058C4FF6EF76354050
:105220000584028C8388048B48F6FF752C404FF66A
:10523000FF452C400D884FF6FF7606EA05252C43E6
:105240004FF6DF752A408D8906EA05152A434D88F9
:1052500006EA05152A43154DA84202D0144DA8426E
:105260001DD14FF67F752A40CD894FF6FF7606EAAD
:1052700005152A434FF6BF752A408D8806EA0515A5
:105280002A434FF6FF352B404FF2FF752B400D8A16
:1052900006EA85052B434D8A06EA85052B43838064
:1052A00004838D688563028470BD000000000140A6
:1052B000000401400A460021018B4FF2FF731940A0
:1052C0004FF6FF7303EA022319430183704700007E
:1052D00070B5002400220023058C4FF6FF66354090
:1052E0000584028C8388848B4FF68F752C404FF693
:1052F000FC752C400D882C434FF6FF552A408D89B4
:105300004FF6FF7606EA05252A434D8806EA05256D
:105310002A43154DA84202D0144DA8421DD14FF288
:10532000FF752A40CD894FF6FF7606EA05252A4308
:105330004FF6FF352A408D8806EA05252A434EF6AA
:10534000FF752B404DF6FF752B400D8A06EA0515BB
:105350002B434D8A06EA05152B43838084838D6891
:10536000C563028470BD00000000014000040140DC
:105370000A460021818B4FF6F77319401143818350
:105380007047000070B5002200230024058C4EF603
:10539000FF7635400584038C8488828B48F6FF7540
:1053A0002A404FF6FF452A400D884FF6FF7606EA61
:1053B00005252A434DF6FF752B408D8906EA0535F4
:1053C0002B434D8806EA05352B430A4DA84202D0EF
:1053D000094DA84208D14BF6FF752C400D8A4FF6B7
:1053E000FF7606EA85152C43848082838D680564E8
:1053F000038470BD00000140000401400A46002102
:10540000818B4FF2FF7319404FF6FF7303EA0223BB
:10541000194381837047000000220288184B98428C
:105420000ED0184B98420BD0B0F1804F08D0164BDD
:10543000984205D0154B984202D0154B984204D1A2
:105440004FF68F731A404B881A43124B984207D07D
:10545000114B984204D04FF6FF431A400B891A4370
:1054600002804B68C3620B880385054B984202D0CB
:10547000044B984201D18B7A0386012383827047C3
:10548000000001400004014000040040000800400A
:10549000000C0040001000400014004010B502480D
:1054A00001F0E0FF10BD0000EC01002010B5024843
:1054B00001F0D8FF10BD00003806002001F4007292
:1054C000B2F5007F00D100BFCA430280704721B10E
:1054D000828942F40052828104E082894DF6FF7392
:1054E0001A408281704702460020B1F5007F00D14A
:1054F00000BF13880B400BB1012000E00020704773
:1055000070B50246002400230025002040F66A16EC
:10551000B14200D100BFC1F3421501F01F030126C3
:1055200006FA03F3012D02D19689334006E0022DDD
:1055300002D1168A334001E0968A33400C120126CC
:1055400006FA04F41688344013B10CB1012000E0CF
:10555000002070BDF0B50346002400260025002081
:1055600040F66A17B94200D100BF1846C1F3421491
:1055700001F01F06012707FA06F5012C01D10C30B6
:1055800004E0022C01D1103000E014301AB1076899
:105590002F43076002E00768AF430760F0BD0000DB
:1055A0002DE9FF4705460E460024A14600BFA04650
:1055B000B08900B100BF2C8A24F44054F088044321
:1055C0002C82AC8941F20C608443B0883189084355
:1055D000718908430443AC81AC8A24F44074B089D7
:1055E0000443AC826846FCF7F9FF2048854202D0AC
:1055F0001F48854202D1DDF80C9001E0DDF80890EB
:10560000A88900F4004040B109EBC90000EB091083
:1056100031684900B0FBF1F707E009EBC90000EB86
:10562000091031688900B0FBF1F76420B7FBF0F096
:1056300004012009642101FB1078A88900F40040CE
:1056400040B1322000EBC800B0FBF1F000F00700E1
:10565000044308E0322000EB08106421B0FBF1F0B5
:1056600000F00F0004432C81BDE8FF8700100140CB
:105670000014014001468888C0F308007047C1F358
:1056800008028280704770B504460D46D4F8E405E0
:105690002946426820469047002070BD70B50446F8
:1056A0000D464FF48970005D022802D0032812D104
:1056B00000E000BF688801280CD100214FF48C70F5
:1056C0000151D4F8E40529468268204690472046D7
:1056D00000F05EF804E02946204600F021F800BF03
:1056E00000BF70BD2DE9F04106460C461546002767
:1056F0002B46224600213046FBF72DF93846BDE8FF
:10570000F0812DE9F04106460C46154600272B4650
:10571000224600213046FBF779F93846BDE8F08192
:1057200070B504460D4680212046FBF74BF9002159
:105730002046FBF747F9204601F0ADFA70BD70B581
:1057400004460025052140F21110015500231A4698
:1057500019462046FBF7FFF8204601F09CFA284640
:1057600070BD2DE9F04104460E4615460027C4F8E9
:105770003C51C4F83851022140F2111001552B461A
:10578000324600212046FBF741F93846BDE8F0815A
:1057900070B504460025042140F211100155002384
:1057A0001A4619462046FBF731F9204601F073FAF4
:1057B000284670BD70B505460E46002E51D105F540
:1057C0008E7440F21110405D02283DD1A168E0695D
:1057D000884211D9A168E069401AE061E87801289F
:1057E00003D1D4E902100844E060A08B82B22846BD
:1057F000E168FFF786FF27E0A168206AB0FBF1F2BD
:1058000001FB120078B9A168206A88420BD3D4E961
:105810000801884207D2002211462846FFF771FF8F
:105820000020606210E0D5F8E405C06848B14FF48C
:105830008970405D032804D1D5F8E405C168284685
:1058400088472846FFF77BFF4FF48B70405D0128A7
:1058500016D1284600F046FB00214FF48B704155CD
:105860000EE0D5F8E405406950B14FF48970405D11
:10587000032805D1D5F8E40531464269284690470A
:10588000002070BD70B505460E46A6BB05F55D74DB
:1058900040F21110405D03283DD1A168E0698842C3
:1058A00017D9A168E069401AE061E878012803D1BE
:1058B000D4E902100844E060A368E069984201D28C
:1058C000E06900E0A06882B22846E168FFF70AFFBD
:1058D00021E0D5F8E405006948B14FF48970405DD6
:1058E000032804D1D5F8E4050169284688472846ED
:1058F000FFF74EFF0FE0FFE7D5F8E405806950B1F0
:105900004FF48970405D032805D1D5F8E405314690
:10591000826928469047002070BD014600207047EC
:1059200070B504460D46E888012804D02946204673
:10593000FFF7F6FE1AE04FF48970005D022802D0EE
:1059400003280DD105E0012209492046FFF709FF90
:105950000BE0012204F588712046FFF702FF04E006
:1059600029462046FFF7DCFE00BF00BF70BD0000E7
:1059700070010020F8B504460E4670880012082811
:105980006CD2DFE800F06B0416226B6B6166A078C6
:10599000D4F8EC150A68694690470546F088402817
:1059A00004D04FF48970005D012801D108200090D7
:1059B00059E0A078D4F8E4158A6A6946904705460C
:1059C00002216970C4F8F0554DE0B078062834D251
:1059D000DFE800F0030B131B232BA078D4F8EC15A1
:1059E0004A686946904705462CE0A078D4F8EC1543
:1059F0008A6869469047054624E0A078D4F8EC15FB
:105A0000CA686946904705461CE0A078D4F8EC15B2
:105A10000A6969469047054614E0A078D4F8EC1569
:105A20004A696946904705460CE0A078D4F8EC1521
:105A30008A6969469047054604E031462046FFF7EB
:105A40006FFEF8BD00BF0EE031462046FFF768FE4E
:105A5000F7E731462046FFF763FEF2E7314620467E
:105A6000FFF75EFEEDE700BFBDF8000088B1F088EB
:105A700078B1F088BDF80010884202DDBDF8000062
:105A800000E0F0880090BDF8002029462046FFF78E
:105A900068FE00BFD5E70146002002E0421CD0B2FC
:105AA000491C0A78002AF9D17047024601EB8103AC
:105AB00002F55D7000EBC300008B80B27047000000
:105AC00070B504460D464FF48970005D022802D07F
:105AD000032813D100E000BF01200C4908604FF4F7
