:020000040800F2
:10000000285B0020A9010008FD0E00084D0D000826
:10001000F90E000859030008193400080000000018
:10002000000000000000000000000000DD180008D3
:10003000690C00080000000089140008C9190008B4
:10004000C3010008C3010008C3010008C301000880
:10005000C3010008C3010008C3010008C301000870
:10006000C3010008C3010008C3010008C301000860
:10007000C3010008C3010008C3010008C301000850
:10008000C3010008C3010008C3010008000000000C
:10009000000000000000000000000000C301000894
:1000A000C3010008C3010008C3010008C301000820
:1000B000C3010008C3010008C3010008C301000810
:1000C000C3010008C3010008C3010008C301000800
:1000D000C3010008011F0008C30100080000000060
:1000E000C3010008C3010008C301000800000000AC
:1000F000000000000000000000000000C301000834
:1001000000000000E1170008BD1A0008C301000844
:1001100000000000000000000000000000000000DF
:10012000C3010008C3010008C30100082D0C00082A
:10013000C3010008000000000000000000000000F3
:10014000000000000000000000000000791400081A
:10015000C3010008C3010008C3010008111F000803
:10016000C3010008C30100080000000000000000F7
:10017000000000000000000000000000000000007F
:1001800000000000C30100080000000000000000A3
:10019000C3010008DFF80CD000F068F80048004701
:1001A00039410008285B0020064880470648004780
:1001B000FEE7FEE7FEE7FEE7FEE7FEE7FEE7FEE717
:1001C000FEE7FEE7551A0008950100082DE9F05FEB
:1001D0000546002092469B468846064681464024B6
:1001E0001BE0284641464746224600F02FF853467A
:1001F0005A46C01A914110D311461846224600F0C3
:1002000016F82D1A67EB01084F46224601200021FF
:1002100000F00DF817EB00094E41201EA4F1010477
:10022000DFDC484631462A464346BDE8F09F202A97
:1002300004DB203A00FA02F1002070479140C2F13D
:10024000200320FA03F3194390407047202A04DB6F
:10025000203A21FA02F00021704721FA02F3D0403F
:10026000C2F120029140084319467047064C074DE1
:1002700006E0E06840F0010394E807009847103476
:10028000AC42F6D3FFF78AFFC0410008E041000806
:100290001CB52F48007810B12D48808800B91CBDCE
:1002A0002B484078E8B92A48808800284DDD284846
:1002B0000089401C80B2264908814988884244DB75
:1002C00000204FF4FA6104238A06CDE900100821CA
:1002D000204803F0DDFD00201D4908810120487001
:1002E00033E01B48407801282FD119480089401C71
:1002F00080B2174908818988884226DB1448C08863
:10030000002812DD12484089401C80B21049488103
:10031000C988884202DB00200D4908700C4800782B
:1003200018B900200A498880B9E7002008490881E7
:10033000487041F288304FF4FA610423C206CDE9D7
:1003400000100821034803F0A3FD00BFA7E7000049
:10035000281500200000024000BFFEE7014609B951
:100360000B487047012901D10020FAE7022901D189
:100370000020F6E7032901D10020F2E7042901D18A
:100380000020EEE7052901D10248EAE70020E8E76E
:10039000A8000020D008002008B525208DF8000016
:1003A00000208DF8020001208DF80300684600F05F
:1003B000A7FD47208DF8000005208DF802000120E0
:1003C0008DF80300684600F09BFD08BD70B5064639
:1003D0000C4604F08000802808D104F07F0000EB78
:1003E000800106F58E7000EBC10505E004EB840189
:1003F00006F55D7000EBC1050020A87004F07F00D9
:100400002870C4F3C01068702946304602F01AFD07
:10041000002070BD2DE9F04106460D4690461F466E
:1004200005F08000802808D105F07F0000EB8001F6
:1004300006F58E7000EBC10407E005F07F0000EBCD
:10044000800106F55D7000EBC10405F07F002070AF
:1004500005F08000C0096070C4F80880E77060781B
:1004600008B12078E080022F01D1002020712146C0
:10047000304602F09BFC0020BDE8F0812DE9F04100
:1004800005460E461746984606F07F0000EB8001B1
:1004900005F55D7000EBC104E760C4F8148000202E
:1004A000A061607006F07F002070E878012800D11C
:1004B0002761207820B92146284602F09BFB03E003
:1004C0002146284602F018FD0020BDE8F08108B55D
:1004D00000220092009A61F30A12009202691268E7
:1004E000009B1A4303691A6008BD70B506460C46A6
:1004F00004F08000802808D104F07F0000EB800128
:1005000006F58E7000EBC10505E004EB840106F5ED
:100510005D7000EBC1050120A87004F07F00287019
:10052000C4F3C01068702946304602F0B3FC0020C6
:1005300070BD2DE9F04107460D461646984605F078
:100540007F0000EB800107F58E7000EBC1040120F5
:10055000607005F07F002070E66026610020A061D9
:10056000C4F81480207820B92146384602F042FBB6
:1005700003E02146384602F0BFFC0020BDE8F081D0
:100580001CB50446204602F000FBE068C0680090FD
:10059000204602F0D7FD03280BD10020A0704FF4B5
:1005A0000070A080009820F4705000F5105000906A
:1005B00009E00120A0704020A080009820F4705035
:1005C00000F5A05000900098E168C86000200190FC
:1005D000019820F4005000F5005001900198E16866
:1005E000486101201CBD0000F8B50546002400202C
:1005F0000090284602F0D9FD064690E006F0010082
:1006000000287DD0E1B2284600F0B4FA00900098AE
:1006100000F0010030B3012000FA04F72869406BB4
:10062000B8432969486300200090009820F0010039
:10063000401C009005F1180050F8240000998160DA
:10064000E1B239480068426828469047E8780128B6
:1006500008D13CB940F21110405D042802D128466F
:1006600002F073FB0098C0F3C00060B1002000905E
:10067000009820F008000830009005F1180050F8AC
:100680002400009981600098C0F3001060B1002040
:100690000090009820F010001030009005F1180034
:1006A00050F82400009981600098C0F3801060B178
:1006B00000200090009820F040004030009005F1AC
:1006C000180050F82400009981600098C0F34000A1
:1006D00060B100200090009820F00200801C009083
:1006E00005F1180050F82400009981600098C0F3CB
:1006F000C01028B12146284600F050FA002000E042
:100700000BE00090009820F080008030009005F110
:10071000180050F8240000998160641C7608002EAF
:100720007FF46CAF0120F8BD900000207CB504463A
:10073000002500200190204602F03FFD06466FE0B4
:1007400006F00100002869D0E9B2204602F03DFD24
:100750000190019800F00100C8B3002001900198B9
:1007600020F00100401C019004F1540050F82500D5
:1007700001998160E078012817D104F1540050F804
:1007800025000069009005EB850104F55D7000EB24
:10079000C10080680099C1F31201411A05EB85027E
:1007A00004F55D7000EBC2008161E9B21E4800688B
:1007B000026820469047E078012808D13DB940F210
:1007C0001110005D052802D1204602F0BEFA019802
:1007D000C0F3400060B100200190019820F00200B9
:1007E000801C019004F1540050F8250001998160AB
:1007F0000198C0F3C00088B10B48006881682046AA
:10080000884700200190019820F0080008300190EE
:1008100004F1540050F82500019981606D1C7608A0
:10082000002E8DD101207CBD900000203EB50446F5
:10083000A07A70B1D4F80C010090009820F002006A
:100840000090009820F0010000900099D4F80C016D
:10085000016000200190019820F00100401C0190EF
:100860002069406801998843216948600848006808
:1008700081692046884700200290029820F00040BD
:1008800000F1004002900298E168486101203EBDFD
:10089000900000207CB5044600200190019820F0D3
:1008A000100010300190E068806901998843E16888
:1008B0008861E068006A0090009800F00F0000EB8B
:1008C000800104F55D7000EBC1050098C0F3434062
:1008D00007282DD2DFE800F02C04051D1E2C1F0078
:1008E00027E00098C0F30A1090B10098C0F30A12F4
:1008F0002046E96802F073FCE8680099C1F30A1128
:100900000844E860A8690099C1F30A110844A86185
:100910000FE00EE00DE0082204F2CC51204602F078
:100920005EFCA8690099C1F30A110844A86100E0BF
:1009300000BF00BFE068806901990843E1688861F1
:1009400001207CBD38B5044608480068C1682046CF
:10095000884700200090009820F0080008300090A0
:100960000098E1684861012038BD00009000002037
:100970001FB50446002000904FF48970005D009080
:1009800023480068416920468847206980680190B3
:1009900000200390039820F4006000F500600390AD
:1009A0000398E1684861A07A70B3019800F00100F3
:1009B00050B340F21510005D012825D19DF80000CC
:1009C000032821D100200290029820F00100401C51
:1009D0000290D4F80C01006802990843D4F80C1175
:1009E0000860029820F00200801C0290D4F80C01EC
:1009F000006802990843D4F80C11086005480068A3
:100A000040F0060003490860012004B010BD00005A
:100A10009000002010ED00E030B587B004460020C3
:100A2000029006900590049003900190029820F0A7
:100A30000100401C029020694068029988432169A6
:100A400048600021204602F053FB00250BE0FF2107
:100A500004F1180050F82500816004F1540050F8AA
:100A6000250081606D1C6078A842F0D84FF0FF31FE
:100A70002069816106986FF30F00401C069006986C
:100A800080B200F58030069006992069C161059812
:100A900020F0080008300590059820F00100401C67
:100AA0000590059820F00200801C059005992069AA
:100AB0004161049820F00100401C0490049820F04B
:100AC000080008300490049820F00200801C049074
:100AD000049920690161206900680390039820F45B
:100AE000FE600390039920690160204602F02DF911
:100AF00000200190019820F4805000F58050019072
:100B00000198E16848610448006801692046884707
:100B1000012007B030BD00009000002038B5044629
:100B20000020009007480068C16920468847009867
:100B300020F4801000F5801000900098E168486172
:100B4000012038BD9000002038B5044600200090F8
:100B500007480068016A20468847009820F4001082
:100B600000F5001000900098E1684861012038BD50
:100B70009000002030B5024615692B6915696C6B31
:100B800024FA01F505F0010543EAC51302F1180541
:100B900055F82150AD6805EA030030BD2DE9F84352
:100BA00007460E4600250020009006EB860107F55B
:100BB0008E7000EBC104D4E90501451AA068A84273
:100BC00000D2A568E81C4FEA900807F1180050F819
:100BD0002600806900901BE0D4E90501451AA06851
:100BE000A84200D2A568E81C4FEA9008ABB2F2B266
:100BF0003846E16802F007FBE0682844E060A0693D
:100C00002844A06107F1180050F826008069009080
:100C1000009880B2404506D9D4E90510884202D236
:100C200060690028D8D10120BDE8F88310B500F034
:100C3000EBFD10BD0246094B9A4201D2084801E083
:100C40000648103801F000531BB1064B0B40C3603F
:100C500002E0044B0B4083607047000010640240C8
:100C6000006002407D0F7D0F7047F0B50A460021FD
:100C70000023002400BF3DE0012505FA01F31568BB
:100C800005EA03049C4234D105684F000326BE40A8
:100C9000B543056015794E00B540066835430560DB
:100CA0001579012D02D01579022D16D185684F00D6
:100CB0000326BE40B543856055794E00B540866831
:100CC00035438560456801268E40B54345604568DB
:100CD00096798E40B6B235434560C5684F0003260D
:100CE000BE40B543C560D5794E00B540C6683543B2
:100CF000C560491C1029BFD3F0BDF0B50023002406
:100D00004D07ED0E02FA05F3CE1000F1200555F85F
:100D100026504E07F70E0F26BE40B543CF1000F108
:100D2000200646F82750CE1000F1200555F8265031
:100D300045EA0304CE1000F1200545F82640F0BD39
:100D40000AB1018300E041837047000009A100203F
:100D50000CE00A5C124B1A8000BF114A121F128865
:100D600002F04002002AF8D0421CD0B22A28F0D368
:100D700000BFFEE70D0A456E74657220486172641B
:100D80004661756C745F48616E646C65722C2053AB
:100D9000797374656D2048616C742E0D0A00000033
:100DA0000414014000B587B00121022000F062FC6C
:100DB0000121102000F07EFC072206214A48FFF79F
:100DC0009CFF072211464848FFF797FF00208DF847
:100DD0001A0001208DF81B0002208DF81800402019
:100DE000059002208DF8190005A93F48FFF73DFF47
:100DF00002208DF818008020059005A93A48FFF7D9
:100E000034FF4FF4E13001900020ADF80800ADF858
:100E10000A00ADF80C00ADF810000C20ADF80E0083
:100E200001A9324801F0E0F8012240F225512F4893
:100E300001F0B5F801212D4801F07BF840212B4845
:100E400001F06EF80121042000F014FC01212020A3
:100E500000F030FC082206212548FFF74EFF08224B
:100E600007212348FFF749FF00208DF81A000120D1
:100E70008DF81B0002208DF81800402005900220FC
:100E80008DF8190005A91A48FFF7EFFE02208DF82A
:100E900018008020059005A91548FFF7E6FE4FF4DD
:100EA000E13001900020ADF80800ADF80A00ADF87F
:100EB0000C004FF44070ADF810000C20ADF80E009F
:100EC00001A90C4801F090F8012240F2255109488F
:100ED00001F065F80121074801F02BF84021054891
:100EE00001F01EF807B000BD0004024000100140F0
:100EF000000802400014014000BFFEE770470000F8
:100F000070B5002100230F22C4781CB3174C24684D
:100F100004F4E064C4F5E064C4F30721C1F10404FF
:100F2000E3B20A4144789C40E1B284781440214302
:100F30000C07210E0E4C05786155047804F01F054E
:100F40000124AC4005786D11AD0005F1E025C5F830
:100F5000004109E0047804F01F050124AC40054D70
:100F60000678761145F8264070BD00000CED00E0D3
:100F700000E400E080E100E070B5002418E004F136
:100F8000B001C8B200F02CFA002000F029FA1020BD
:100F900000F026FA002507E0074901EBC411485D7F
:100FA00000F044FA681CC5B2802DF5DB601CC4B2A9
:100FB000082CE4DB70BD00002811002070B5064647
:100FC00000240BE0002505E0074800EBC41046555F
:100FD000681CC5B2802DF7DB601CC4B2082CF1DBA5
:100FE000FFF7CAFF70BD0000281100201CB50121C9
:100FF000022000F03FFB01208DF8040000208DF856
:1010000006008DF8070002208DF8050001200090F1
:1010100069461148FFF729FE4FF4005000906946D9
:101020000D48FFF722FE4FF40040009069460A4841
:10103000FFF71BFE0420009069460748FFF715FEE6
:101040000220009069460448FFF70FFE0120024984
:101050001A3108801CBD00000004024010B58D202C
:1010600000F0BEF9142000F0BBF9A42000F0B8F99C
:10107000A62000F0B5F9AF2000F0B2F910BD2DE9BF
:10108000F04F87B004460D4616461F4629462046B7
:10109000109A00F011F9B44204D1BD4202D107B058
:1010A000BDE8F08F00200290A64202DBA6EB040808
:1010B00001E0A4EB0608AF4202DBA7EB050901E063
:1010C000A5EB0709C8450CDA0121029120462C4600
:1010D000054630463E4607461FFA88F0C846814618
:1010E00000BFA64201DD012001E04FF0FF30069075
:1010F000AF4201DD012001E04FF0FF300590A24634
:1011000001954FEA49000490A9EB080040000390C4
:101110000498A0EB080B1EE0BBF1000F02DA049864
:10112000834405E00599019808440190039883449D
:10113000029838B11FFA8AF1019A90B2109A00F021
:10114000BBF806E0019A91B21FFA8AF0109A00F0FB
:10115000B3F806988244B245DED100BF9FE72DE97F
:10116000F84304460D4616461F46DDF82080E01978
:10117000401E82B22B4629462046CDF80080FFF75C
:101180007EFFA819401E83B2E019401E82B2A81942
:10119000401E81B22046CDF80080FFF770FFA819ED
:1011A000401E83B2224629462046CDF80080FFF734
:1011B00066FFA9198BB2E119491E8AB2E119491ECD
:1011C00088B22946CDF80080FFF759FFBDE8F883C3
:1011D00010B5012002490870FFF7CEFE10BD0000D7
:1011E0003800002010B5FFF701FF322002F0FAFBB3
:1011F0004FF400502F4908800420891C08803220B9
:1012000002F0F0FB04202B490880AE2000F0E8F843
:10121000002000F0E5F8102000F0E2F8402000F097
:10122000DFF8812000F0DCF8CF2000F0D9F8A02012
:1012300000F0D6F8C02000F0D3F8A12000F0D0F8DC
:10124000C82000F0CDF8A62000F0CAF8A82000F0D1
:10125000C7F83F2000F0C4F8D32000F0C1F8002008
:1012600000F0BEF8D52000F0BBF8802000F0B8F800
:10127000D92000F0B5F8F12000F0B2F8DA2000F043
:10128000AFF8122000F0ACF8DB2000F0A9F8402005
:1012900000F0A6F8202000F0A3F8022000F0A0F84B
:1012A000FFF7DCFE0020FFF789FE0021084600F072
:1012B0005BF810BD180402402DE9FF4780460C463C
:1012C000914623A103C9CDE9020123A103C9CDE9B8
:1012D00000012046E11704EB5171C1F3C70708F084
:1012E000FF061F4800EBC710855DB9F1000F0AD15A
:1012F0002046E11704EB5171C910A4EBC1011DF8A0
:1013000001100D4009E02046E11704EB5171C910AE
:10131000A4EBC10102AA515C0D43114800EBC710B8
:10132000855510480078012810D107F1B001C8B2E6
:1013300000F056F806F00F0000F052F8102101EB13
:10134000161000F04DF8284600F070F8BDE8FF8751
:101350000102040810204080FEFDFBF7EFDFBF7F95
:10136000281100203800002030B504460D46B02179
:1013700001EBE501C8B200F00DF8102141EA1410AC
:1013800000F008F804F00F0141F0010000F002F84D
:1013900030BD000008210222104B1A808A021A80F8
:1013A00015E000F080022AB14FF400420B4B9B1E67
:1013B0001A8003E04FF40042084B1A804FF40052A9
:1013C000064B9B1E1A809B1C1A804206100E0A1E9A
:1013D000A1F10103D9B2E4D1704700001A04024020
:1013E00008210222104B1A808A021A8015E000F0B0
:1013F00080022AB14FF400420B4B9B1E1A8003E07F
:101400004FF40042084B1A804FF40052064B9B1ECB
:101410001A809B1C1A804206100E0A1EA1F10103BD
:10142000D9B2E4D1704700001A0402400821022218
:10143000104B1A808A029B1C1A8014E000F0800274
:1014400022B14FF400420B4B1A8004E04FF40042EB
:10145000084B9B1C1A804FF40052064B1A809B1CB1
:101460001A804206100E0A1EA1F10103D9B2E5D17D
:10147000704700001804024010B5024801F068F8F7
:1014800010BD0000341500207047000070B51A48E8
:101490000468001D0568001D066823462A4631467B
:1014A00016A001F0BBFF23A001F0B8FF22A001F0BD
:1014B000B5FF31A134A001F0B1FF38A138A001F08F
:1014C000ADFF3CA13EA001F0A9FF002308220121AD
:1014D00040A001F0A3FF4DA001F0A0FF4DA001F03E
:1014E0009DFF52A001F09AFF58A001F097FF12A0B3
:1014F00001F094FF70BD0000107AFF1F0D0A4350E9
:1015000055203A2053544D333246343031524354EF
:10151000362C204C51465036342C20554944203D21
:101520002025303858202530385820253038580D9F
:101530000A0000000A0D00002A2A2A2A2A2A2A2A3A
:101540002A2A2A2A2A2A2A2A2A2A2A2A2A2A2A2AFB
:101550002A2A2A2A2A2A2A2A2A2A2A2A2A2A2A2AEB
:101560002A2A2A2A2A2A2A2A2A2A2A2A2A2A2A2ADB
:101570002A2A2A2A2A0D0A0049415020426F6F74F4
:101580004C6F6164657200002A20C0FDB3CCC3FBC0
:10159000B3C62020203A2025730D0A00312E3000DA
:1015A0002A20C0FDB3CCB0E6B1BE2020203A2025D1
:1015B000730D0A00323031392D30332D31350000B2
:1015C0002A20B7A2B2BCC8D5C6DA2020203A2025EE
:1015D000730D0A002A20B9CCBCFEBFE2B0E6B1BE52
:1015E000203A205625642E25642E25642028535445
:1015F0004D3332463478785F537464506572697045
:10160000685F447269766572290D0A002A200D0A06
:10161000000000002A205151202020203A2031359E
:10162000333037353035200D0A0000002A20456D53
:1016300061696C203A2031353330373530354071AF
:10164000712E636F6D200D0A000000002A20436F89
:101650007079726967687420CEDECEFDBEB0C3F7C4
:10166000B5E7D7D3BFC6BCBCD3D0CFDEB9ABCBBEFA
:101670000D0A000029B1064A12680243044B1A60A1
:1016800004E0034A12688243014B1A60704700006D
:101690003038024029B1064A12680243044B1A60EE
:1016A00004E0034A12688243014B1A60704700004D
:1016B0004038024029B1064A12680243044B1A60BE
:1016C00004E0034A12688243014B1A60704700002D
:1016D00044380240F0B500210022002402250026F3
:1016E0000223324F3F6807F00C0121B1042905D0D5
:1016F000082937D105E02E4F076036E02D4F0760EF
:1017000033E02A4F3F1F3F68C7F38056274F3F1FE4
:101710003F6807F03F036EB1264FB7FBF3F7DFF8E2
:101720008CC0ACF1040CDCF800C0CCF3881C07FBC7
:101730000CF40CE01E4FB7FBF3F7DFF870C0ACF110
:10174000040CDCF800C0CCF3881C07FB0CF4174F2A
:101750003F1F3F68C7F301477F1C7D00B4FBF5F7CF
:10176000076002E0124F076000BF00BF0F4F3F68E5
:1017700007F0F0010909104F7A5C0768D74047600D
:101780000A4F3F6807F4E051890A0B4F7A5C4768BB
:10179000D7408760054F3F6807F46041490B064F0B
:1017A0007A5C4768D740C760F0BD00000838024047
:1017B0000024F40040787D013900002001490860D0
:1017C00070470000382C014001460020034A12688F
:1017D0000A400AB1012000E000207047342C01408B
:1017E00010B500F025F810BD29B1064A1268024371
:1017F000044B1A6004E0034A12688243014B1A60EA
:10180000704700003C2C014010B50748006800F00C
:10181000C05040B10120054908604FF0C251024854
:101820005830FFF707FA10BD006402403400002072
:1018300010B54FF48070FFF7C7FF50B10020254965
:1018400008704FF48070FFF7B9FF0120224908604B
:1018500037E00220FFF7B8FF30B10220FFF7AEFFFC
:1018600002201C4908702CE00820FFF7ADFF30B1C2
:101870000820FFF7A3FF04201649087021E020206C
:10188000FFF7A2FF30B12020FFF798FF0620114993
:10189000087016E01020FFF797FF30B11020FFF717
:1018A0008DFF05200B4908700BE04FF40070FFF727
:1018B0008BFF30B14FF40070FFF780FF0720054920
:1018C000087000214CF23A30FFF78EFF0148007893
:1018D00010BD00002C0000203000002070470000E8
:1018E0000CB50020019000903348006840F480302F
:1018F0003149086000BF3048006800F400300090B3
:101900000198401C0190009818B90198B0F5A04FBB
:10191000F1D12948006800F4003010B10120009096
:1019200001E0002000900098012844D12248403076
:10193000006840F080502049403108601F4800682E
:1019400040F440401D4908601B48083000681A49AF
:10195000083108600846006808600846006840F4DE
:10196000805008601648091F0860081F006840F092
:101970008070091F086000BF0F48006800F0007009
:101980000028F9D040F202700E4908600A48083079
:10199000006820F003000849083108600846006824
:1019A00040F00200086000BF03480830006800F003
:1019B0000C000828F8D10CBD00380240007000402F
:1019C00019544107003C024010B500F001F810BD69
:1019D00010B51B48006840B119480068401E1849FE
:1019E000086010B9012017490870002408E004EBD2
:1019F0004401154A02EB810002F01CFB601CC4B2DA
:101A0000042CF4DB11480068401C104908600846AB
:101A100000686FF00041884202D100200B49086045
:101A200002F034FA0A480078401CC0B20849087035
:101A30000A2803DB0020087002F024FA10BD000021
:101A40000000002004000020F81000200800002002
:101A50001C00002010B51548006840F470001349C0
:101A600008601348006840F0010011490860002038
:101A70000F49083108600E4800680E4908400C49BB
:101A800008600D48091D0860081F006820F48020C8
:101A9000091F0860002006490C310860FFF720FF8D
:101AA0004FF0006001498039086010BD88ED00E00A
:101AB00000380240FFFFF6FE1030002410B502216E
:101AC000214800F075F858B102211F4800F052F883
:101AD000002202211C4800F07CF81C480068804766
:101AE0000421194800F064F858B10421164800F0A8
:101AF00041F800220421144800F06BF814480068F3
:101B000080470821104800F053F858B108210E48CA
:101B100000F030F8002208210B4800F05AF80D4878
:101B2000006880471021084800F042F858B11021A1
:101B3000054800F01FF800221021034800F049F882
:101B400005480068804710BD000C00400C000020D4
:101B500010000020140000201800002021B102888D
:101B600042F08002028004E002884FF67F731A4040
:101B700002807047CA430282704721B1028842F056
:101B80000102028004E002884FF6FE731A400280D0
:101B9000704731B1B0F8442042F40042A0F844202C
:101BA00005E0B0F84420C2F30E02A0F844207047CC
:101BB00030B50246002000230024158A05EA0103FF
:101BC000958905EA010413B10CB1012000E0002061
:101BD00030BD1AB183890B43838102E083898B4333
:101BE0008381704770B5002400220023058C4FF6D6
:101BF000FE7635400584028C8388048B4FF68F7502
:101C00002C40B51E2C400D882C43751E2A408D8912
:101C10002A434D882A43104DA84202D00F4DA842B6
:101C200013D14FF6F7752A40CD892A434FF6FB753D
:101C30002A408D882A434FF6FF652B404FF6FF550B
:101C40002B400D8A2B434D8A2B43838004838D6860
:101C50004563028470BD00000000014000040140A3
:101C60000A460021018B4FF6F77319401143018397
:101C70007047000070B5002400220023058C4FF649
:101C8000EF7635400584028C8388048B48F6FF7517
:101C90002C404FF6FF452C400D884FF6FF7606EAA4
:101CA00005252C434FF6DF752A408D8906EA051578
:101CB0002A434D8806EA05152A43154DA84202D04D
:101CC000144DA8421DD14FF67F752A40CD894FF69D
:101CD000FF7606EA05152A434FF6BF752A408D8820
:101CE00006EA05152A434FF6FF352B404FF2FF75E4
:101CF0002B400D8A06EA85052B434D8A06EA8505A9
:101D00002B43838004838D688563028470BD00004B
:101D100000000140000401400A460021018B4FF2FF
:101D2000FF7319404FF6FF7303EA0223194301833F
:101D30007047000070B5002400220023058C4FF688
:101D4000FF6635400584028C8388848B4FF68F753F
:101D50002C404FF6FC752C400D882C434FF6FF5558
:101D60002A408D894FF6FF7606EA05252A434D88DD
:101D700006EA05252A43154DA84202D0144DA84273
:101D80001DD14FF2FF752A40CD894FF6FF7606EA46
:101D900005252A434FF6FF352A408D8806EA05259A
:101DA0002A434EF6FF752B404DF6FF752B400D8AEA
:101DB00006EA05152B434D8A06EA05152B43838059
:101DC00084838D68C563028470BD000000000140FB
:101DD000000401400A460021818B4FF6F773194039
:101DE000114381837047000070B500220023002456
:101DF000058C4EF6FF7635400584038C8488828BF3
:101E000048F6FF752A404FF6FF452A400D884FF6E9
:101E1000FF7606EA05252A434DF6FF752B408D898E
:101E200006EA05352B434D8806EA05352B430A4D56
:101E3000A84202D0094DA84208D14BF6FF752C40AC
:101E40000D8A4FF6FF7606EA85152C43848082833F
:101E50008D680564038470BD0000014000040140EA
:101E60000A460021818B4FF2FF7319404FF6FF7332
:101E700003EA02231943818370470000002202888D
:101E8000184B98420ED0184B98420BD0B0F1804FAF
:101E900008D0164B984205D0154B984202D0154BEE
:101EA000984204D14FF68F731A404B881A43124B55
:101EB000984207D0114B984204D04FF6FF431A4086
:101EC0000B891A4302804B68C3620B880385054B5C
:101ED000984202D0044B984201D18B7A03860123A9
:101EE000838270470000014000040140000400406C
:101EF00000080040000C00400010004000140040AA
:101F000010B5024801F09FF910BD0000A8000020A4
:101F100010B5024801F097F910BD0000D00800206C
:101F200001F40072B2F5007F00D100BFCA43028005
:101F3000704721B1828942F40052828104E0828993
:101F40004DF6FF731A408281704770B50246002437
:101F500000230025002040F66A16B14200D100BFE0
:101F6000C1F3421501F01F03012606FA03F3012D08
:101F700002D19689334006E0022D02D1168A334001
:101F800001E0968A33400C12012606FA04F4168802
:101F9000344013B10CB1012000E0002070BDF0B559
:101FA0000346002400260025002040F66A17B942A7
:101FB00000D100BF1846C1F3421401F01F060127EB
:101FC00007FA06F5012C01D10C3004E0022C01D1F6
:101FD000103000E014301AB107682F43076002E0A8
:101FE0000768AF430760F0BD2DE9FF4705460E4681
:101FF0000024A14600BFA046B08900B100BF2C8AD2
:1020000024F44054F08804432C82AC8941F20C60E3
:102010008443B08831890843718908430443AC8103
:10202000AC8A24F44074B0890443AC826846FFF75C
:1020300051FB2048854202D01F48854202D1DDF87D
:102040000C9001E0DDF80890A88900F4004040B150
:1020500009EBC90000EB091031684900B0FBF1F74A
:1020600007E009EBC90000EB091031688900B0FBFB
:10207000F1F76420B7FBF0F004012009642101FBB3
:102080001078A88900F4004040B1322000EBC8006D
:10209000B0FBF1F000F00700044308E0322000EB51
:1020A00008106421B0FBF1F000F00F0004432C8114
:1020B000BDE8FF87001001400014014001468888F8
:1020C000C0F308007047C1F308028280704770B502
:1020D00004460D46D4F8E405294642682046904758
:1020E000002070BD70B504460D464FF48970005D48
:1020F000022802D0032812D100E000BF688801281E
:102100000CD100214FF48C700151D4F8E40529461C
:10211000826820469047204600F05EF804E0294699
:10212000204600F021F800BF00BF70BD2DE9F0414E
:1021300006460C46154600272B462246002130460F
:10214000FEF79CF93846BDE8F0812DE9F0410646DE
:102150000C46154600272B46224600213046FEF746
:10216000E8F93846BDE8F08170B504460D46802197
:102170002046FEF7BAF900212046FEF7B6F92046C0
:1021800000F0E3FD70BD70B504460025052140F266
:102190001110015500231A4619462046FEF76EF924
:1021A000204600F0D2FD284670BD2DE9F0410446DE
:1021B0000E4615460027C4F83C51C4F83851022198
:1021C00040F2111001552B46324600212046FEF701
:1021D000B0F93846BDE8F08170B504460025042109
:1021E00040F21110015500231A4619462046FEF709
:1021F000A0F9204600F0A9FD284670BD70B505463F
:102200000E46002E51D105F58E7440F21110405D3E
:1022100002283DD1A168E069884211D9A168E0692E
:10222000401AE061E878012803D1D4E9021008449B
:10223000E060A08B82B22846E168FFF786FF27E0C6
:10224000A168206AB0FBF1F201FB120078B9A16825
:10225000206A88420BD3D4E90801884207D20022C1
:1022600011462846FFF771FF0020606210E0D5F8A4
:10227000E405C06848B14FF48970405D032804D17B
:10228000D5F8E405C168284688472846FFF77BFF54
:102290004FF48B70405D012816D1284600F014FAE7
:1022A00000214FF48B7041550EE0D5F8E4054069EC
:1022B00050B14FF48970405D032805D1D5F8E4058D
:1022C0003146426928469047002070BD70B50546EA
:1022D0000E46A6BB05F55D7440F21110405D032863
:1022E0003DD1A168E069884217D9A168E069401A28
:1022F000E061E878012803D1D4E902100844E060E5
:10230000A368E069984201D2E06900E0A06882B267
:102310002846E168FFF70AFF21E0D5F8E4050069E7
:1023200048B14FF48970405D032804D1D5F8E40525
:102330000169284688472846FFF74EFF0FE0FFE770
:10234000D5F8E405806950B14FF48970405D0328E9
:1023500005D1D5F8E405314682692846904700202A
:1023600070BD000070B504460D46E888012804D011
:1023700029462046FFF7F8FE1AE04FF48970005D09
:10238000022802D003280DD105E001220949204688
:10239000FFF70BFF0BE0012204F588712046FFF7E1
:1023A00004FF04E029462046FFF7DEFE00BF00BF21
:1023B00070BD000098000020F8B504460E467088F5
:1023C000001208286CD2DFE800F06B0416226B6B59
:1023D0006166A078D4F8EC150A686946904705460E
:1023E000F088402804D04FF48970005D012801D1A5
:1023F0000820009059E0A078D4F8E4158A6A69466C
:102400009047054602216970C4F8F0554DE0B07858
:10241000062834D2DFE800F0030B131B232BA0782F
:10242000D4F8EC154A686946904705462CE0A07838
:10243000D4F8EC158A6869469047054624E0A078F0
:10244000D4F8EC15CA686946904705461CE0A078A8
:10245000D4F8EC150A6969469047054614E0A0785F
:10246000D4F8EC154A696946904705460CE0A07817
:10247000D4F8EC158A6969469047054604E0314670
:102480002046FFF771FEF8BD00BF0EE03146204642
:10249000FFF76AFEF7E731462046FFF765FEF2E7F1
:1024A00031462046FFF760FEEDE700BFBDF80000B3
:1024B00088B1F08878B1F088BDF80010884202DD5C
:1024C000BDF8000000E0F0880090BDF8002029462B
:1024D0002046FFF76AFE00BFD5E7000070B504464E
:1024E0000D464FF48970005D022802D0032813D1F5
:1024F00000E000BF01200C4908604FF48C700059C7
:1025000020B10846006840F0020008600222064937
:102510002046FFF74AFE04E029462046FFF724FE46
:1025200000BF00BF70BD00009C00002010B5044635
:10253000D4F8E405016A20468847002010BD10B594
:102540000446D4F8E405416A20468847002010BDBF
:102550007CB505460024284600F014FE002865D00E
:10256000284600F01AFE0190019808B900207CBDB1
:102570000198C0F3C04018B12846FEF7D7F80443CD
:102580000198C0F3804018B12846FEF72DF80443A7
:102590000198C0F3400050B100200090009820F056
:1025A0000200801C00900098E968486100BF019813
:1025B000C00F18B12846FEF739F904430198C0F35B
:1025C000C02018B12846FEF7D3F904430198C0F3A0
:1025D000C00018B12846FEF7B5F904430198C0F3CE
:1025E000001018B12846FEF755F904430198C0F3CE
:1025F000003018B12846FEF70FFA04430198C0F3E3
:10260000403018B12846FDF7BBFF04430198C0F3E2
:10261000005018B12846FEF781FA04430198C0F330
:10262000405018B12846FEF78FFA044320469EE733
:1026300090F8CC250A7090F8CD254A7090F8CE35E8
:1026400090F8CF2503EB02224A8090F8D03590F81D
:10265000D12503EB02228A8090F8D23590F8D32559
:1026600003EB0222CA80CB884FF4A07213500123DF
:1026700040F211121354704710B504460023402253
:1026800019462046FDF7C6FE002340228021204641
:10269000FDF7C0FE01214FF489700155A078D4F8F0
:1026A000E82551688847002010BD10B50446D4F8CD
:1026B000E8150869804740F21310015D401E01557E
:1026C00003210155002010BD014603480268086936
:1026D00042600020704700006000002010B50446F2
:1026E000D4F8E405C06920B1D4F8E405C1692046F6
:1026F0008847002010BD70B504460D46A88818BB59
:10270000E88808BBA87800F07F064FF48970005D68
:10271000032804D129462046FFF726FD18E04FF490
:102720008A70065531462046FDF7D1FE2046FFF758
:1027300053FD26B102214FF48970015508E00121B3
:102740004FF48970015503E029462046FFF70CFD40
:1027500070BD70B504460D46D4F8E40529460268FC
:1027600020469047D4F8E81588688047002070BD5F
:1027700070B504460D46A8783049087008460078C0
:10278000012804DD29462046FFF7EEFC55E04FF412
:102790008970005D022802D0032848D117E027483D
:1027A000007880B12548007884F8100103214FF4A7
:1027B00089700155214801782046FFF7CAFF20465D
:1027C000FFF70AFD02E02046FFF706FD34E01B4854
:1027D000007880B902214FF48970015517480078BC
:1027E00084F81001154801782046FFF770FC204658
:1027F000FFF7F2FC1AE094F81001104909788842BA
:1028000011D094F810112046FFF761FC0B480078B6
:1028100084F81001094801782046FFF79AFF204606
:10282000FFF7DAFC02E02046FFF7D6FC04E0294679
:102830002046FFF799FC00BF00BF70BDA00000203C
:10284000F8B504460D460026688801280DD10121FF
:102850004FF48C700151D4F8E40529468268204673
:1028600090472046FFF7B8FC39E06888022836D147
:102870002879A0BB206940680090A8880612062E1F
:1028800022D2DFE806F02103090F151B009820F083
:1028900070001030009017E0009820F07000203099
:1028A000009011E0009820F07000303000900BE0B4
:1028B000009820F070004030009005E0009820F073
:1028C00070005030009000BF00BF054800990160C3
:1028D00001214FF48B7001552046FFF77DFCF8BDB8
:1028E000600000201CB5044669462046FFF7A0FEA4
:1028F0009DF8000000F01F0020B1012807D0022839
:102900000FD109E06946204600F016F811E069464B
:10291000204600F0F9F80CE06946204600F046F841
:1029200007E09DF8000000F080012046FDF7DDFD86
:1029300000BF00BF00201CBD70B505460C46002638
:1029400060780A2829D2DFE800F01923281E280A17
:102950000528140F21462846FFF72EFD22E02146C8
:102960002846FFF7C8FE1DE021462846FFF700FF76
:1029700018E021462846FFF7F5FC13E021462846DB
:10298000FFF7ACFD0EE021462846FFF759FF09E0AE
:1029900021462846FFF7A6FB04E021462846FFF71C
:1029A000E3FB00BF00BF304670BD00002DE9F041E1
:1029B00005460E46002734797078002857D0012844
:1029C0002BD0032875D14FF48970405D022802D0C6
:1029D00003281BD107E02CB1802C03D021462846C8
:1029E000FDF783FD17E0708830B92CB1802C03D03F
:1029F00021462846FDF779FDD5F8E4053146826881
:102A0000284690472846FFF7E7FB04E03146284672
:102A1000FFF7AAFB00BF00BF70E04FF48970405D74
:102A2000022802D003281BD107E02CB1802C03D050
:102A300021462846FDF759FD17E0708878B95CB14A
:102A4000802C09D021462846FDF7C0FCD5F8E405C6
:102A500031468268284690472846FFF7BDFB04E0D0
:102A600031462846FFF780FB00BF00BF46E04FF429
:102A70008970405D022802D0032837D107E02CB1CD
:102A8000802C03D021462846FDF72FFD33E004F0CB
:102A90008000802812D104F07F0000EB800105F552
:102AA0008E7000EBC100807820B1012015490860CC
:102AB00016E022E000201349086011E004F08000D5
:102AC00070B904EB840105F55D7000EBC1008078FE
:102AD00018B101200B49086002E000200949086094
:102AE000022208492846FFF760FB04E031462846E9
:102AF000FFF73AFB00BF00BF00E000BF00BF384651
:102B0000BDE8F0819400002070B504460D46002613
:102B10004FF48970005D032814D1287901280CDC5A
:102B2000D4F8E4052946826820469047E88840B9F1
:102B30003EB92046FFF750FB03E029462046FFF749
:102B400013FB04E029462046FFF70EFB00BF00BF41
:102B5000304670BD10B504464FF48970015D401CCD
:102B600001550421401E0155D4F8E815C868804776
:102B7000002010BD0022C0EB0013D90000BF531C81
:102B80001A468B4200D97047F9E70EB5014600207E
:102B9000002200920A69926802928A691268019280
:102BA000029AC2F3410232B1012A05D0022A09D0A9
:102BB000032A0DD101E000BF00BF019A6FF30A02A2
:102BC000019205E0019A6FF30A02D21C019200BF44
:102BD00000BF019B8A691360009A22F4807202F59B
:102BE000807200920A695268009B9A431A430B69EB
:102BF0005A600EBDFEB50246002000240025029555
:102C000000954D78012D52D193691D6802951D697B
:102C100000954D6955B9009D25F07F050095009DF3
:102C200025F4C01505F50025009516E08E684D6960
:102C3000B54207D98D684D610E7A009D66F3060591
:102C4000009504E00E7D009D66F306050095009D4D
:102C500025F4C01505F500250095009D1D61D5786A
:102C6000012D06D10F7802F1180555F827500E698D
:102C70006E61029D25F0806505F180650295029DDB
:102C800025F0004505F100450295029D1D60D578AF
:102C9000002D59D14D69002D56D00E780125B54033
:102CA0002C4315696D6B2543166975634CE00E78EE
:102CB00002F1540555F826502D6802950E7802F160
:102CC000540555F826502D6900954D695DB90E7A69
:102CD000009D66F306050095009D25F4C01505F5D9
:102CE000002500950CE08D684D610E7A009D66F31D
:102CF00006050095009D25F4C01505F500250095F5
:102D00000F7802F1540555F82750009E2E61D578B2
:102D1000012D06D10F7802F1540555F827500E69A0
:102D20006E61029D25F0806505F180650295029D2A
:102D300025F0004505F1004502950F7802F1540594
:102D400055F82750029E2E60FEBD0EB50021019160
:102D5000019921F04041A1F180410191019921F4B3
:102D6000C01101F500210191019921F07F01183175
:102D70000191019A416D0A61C178012915D10021A3
:102D8000009100F2CC51426D5161416D0968009192
:102D9000009921F0004101F1004100914FF08021A4
:102DA0000091009A416D0A6000BF0EBD3CB502461D
:102DB00000200024019400944C78012C0CD10D7853
:102DC00002F1180454F825300D780124AC40009D20
:102DD00064F30F0500950BE00D7802F1540454F8EC
:102DE00025300D780124AC40009D64F31F4500950B
:102DF0001C680194019CC4F3C034E4B90D89019CA2
:102E000065F30A040194CD78019C65F39344019421
:102E10008D79019C65F399540194019C24F08054B0
:102E200004F180540194019C24F4004404F500440E
:102E30000194019C1C601469E469009D2C43156990
:102E4000EC613CBD38B503460020002400944C786A
:102E5000012C05D10D7803F1180454F8252004E065
:102E60000D7803F1540454F8252014680094009C54
:102E700024F400140094CC78032C02D0CC78022CDB
:102E800005D1009C24F0805404F180540094009CEF
:102E9000146038BD38B503460A460020002400946B
:102EA0005478012C18D1157803F1180454F8251022
:102EB0000C680094009CE40F2CB1009C24F080442A
:102EC00004F180440094009C24F4001404F50014E0
:102ED0000094009C0C600EE0157803F1540454F843
:102EE00025100C680094009C24F4001404F50014D0
:102EF0000094009C0C6038BDFEB505460C460026CB
:102F00000027002002900190607801287ED121786E
:102F100005F1180050F8210000680290217805F1B1
:102F2000180050F8210000690190606948B90198C3
:102F30006FF3120001900121019861F3DC400190D0
:102F400017E06169019861F3120001906069401E09
:102F5000A1680844B0FBF1F1019861F3DC400190F5
:102F6000E078012805D1019820F0C04000F1005020
:102F70000190227805F1180050F8220001990161B2
:102F8000E878012807D1227805F1180050F82200CE
:102F9000216941610DE0E07801280AD0606940B103
:102FA0002178012000FA01F72869406B384329692C
:102FB0004863E078012813D1286980680090009860
:102FC000C0F3002030B9029820F0005000F100500A
:102FD000029005E0029820F0805000F180500290AD
:102FE000029820F0806000F180600290029820F04A
:102FF000004000F100400290227805F1180050F8DE
:10300000220002990160E078012800E008E06CD11C
:10301000A08A83B222782846E16800F0F4F864E0E0
:10302000217805F1540050F82100006802902178C1
:1030300005F1540050F8210000690190606950B911
:10304000A168019861F3120001900121019861F3D8
:10305000DC40019013E0A068401E61690844A1684B
:10306000B0FBF1F1019861F3DC4001900198C0F3ED
:10307000C940A1684843019960F312010191227887
:1030800005F1540050F8220001990161E878012807
:1030900006D1227805F1540050F8220021694161DF
:1030A000E07801280ED1607930B1029820F000500C
:1030B00000F10050029005E0029820F0805000F1ED
:1030C00080500290029820F0806000F180600290B1
:1030D000029820F0004000F100400290227805F1B3
:1030E000540050F82200029901603046FEBD0000F5
:1030F000F8B504460D4600260027002000900098F1
:1031000020F0200020300090009865F38A10009095
:103110000098E168086100BFE06800690090781CD1
:1031200007460749884200D904E00098C0F34010E0
:103130000028F1D100BF0320FFF71CFD3046F8BD89
:10314000400D030008B5014600200A69926800920C
:10315000009AC2F3410232B1012A06D0022A07D0F6
:10316000032A07D102E0032004E000BF022001E0AF
:10317000012000BF00BF08BD0146C868406900F0DB
:103180000100704700B502461046FFF7F5FF012821
:1031900001D0012000BD0020FCE701460020CA68E4
:1031A0005069CA689269104070470146086982698F
:1031B0000869C069024090B2704701460869826997
:1031C0000869C0690240100C7047024602F15403BE
:1031D00053F82130986813695B6918407047F0B55F
:1031E00003460024D01CC71700EB9777BD10D3F817
:1031F000D06000BF03E030680860641C091DAC4269
:10320000F9D30846F0BD2DE9F04104460026E078E8
:10321000B0B900270020DD1C4FEAE57805EB98786F
:103220004FEAA80704F1D00555F822C000BF04E01A
:103230000D68CCF80050401C091DB842F8D300BFFF
:103240003046BDE8F08170B5044640F22551206853
:10325000FEF77BFEE0B12068FEF730FFC5B2E18AE1
:10326000A0684554E08A401C80B2E082E18988422F
:1032700001DB0020E082608BE189884202DA608B0A
:10328000401C6083606A10B12846616A884700BFAD
:1032900040F227712068FEF758FE08B3A08A60B993
:1032A000002240F227712068FEF779FE012240F2E9
:1032B00026612068FEF773FE37E0638A6268D15C9E
:1032C0002068FEF700FF608A401C80B26082A189FE
:1032D000884201DB00206082A08A401EA08224E098
:1032E00040F226612068FEF730FEF0B1A08A50B9A6
:1032F000002240F226612068FEF751FE206AA0B14C
:10330000206A804711E0638A6268D15C2068FEF71A
:10331000DAFE608A401C80B26082A189884201DBAB
:1033200000206082A08A401EA08270BD2DE9F0417D
:1033300004460E461746002527E00CE0012000F069
:103340008CF8B4F81480002000F087F8A08940457C
:1033500000DD01E000BFF1E700BF705D228A616817
:103360008854012000F079F8208A401C80B2208225
:10337000A189884201DB00202082A08A401CA08213
:10338000002000F06AF8681C85B2BD42D5DB01223E
:1033900040F227712068FEF702FEBDE8F0810000D0
:1033A00015481649086016484860164888604FF46A
:1033B00080608881C881002008824882C882088392
:1033C00048838882C861086248620F480F490860D4
:1033D0000F4848600F4888604FF480608881C8813A
:1033E000002008824882C882088348838882C86196
:1033F000086248627047000000100140A8000020E9
:10340000D0000020D004002000140140D00800208B
:10341000F8080020F80C002000BFFEE70FB4054BB1
:1034200010B503A9044A029800F01EF810BC5DF81C
:1034300014FB000027410008A400002002E008C897
:10344000121F08C1002AFAD170477047002001E01E
:1034500001C1121F002AFBD1704780F3108870470A
:1034600080F31088704700002DE9FF4F8DB00F46A4
:103470000546002606E025280BD0DDE90F1290470F
:103480006D1C761C28780028F5D111B03046BDE8B7
:10349000F08F0024A246A1460122EC4900E004433B
:1034A00015F8013F203B02FA03F00842F7D12878D3
:1034B0002A2810D06FF02F022878A0F130010929B6
:1034C00014D80AEB8A0102EB410144F0020400EB3C
:1034D000010A6D1CF0E701CF5FEA000A03D544F44E
:1034E0000054CAF1000A44F002046D1C28782E280A
:1034F00017D115F8010F44F004042A280ED06FF0FC
:103500002F022878A0F1300109290AD809EB890196
:1035100002EB410100EB01096D1CF2E757F8049B37
:103520006D1C28786C280FD006DC4C2817D0682832
:103530000DD06A2814D104E0742810D07A280FD155
:103540000DE044F400140AE044F4801401E044F473
:1035500040146978814202D104F580146D1C6D1C01
:103560002A786E2A1FD00CDC632A31D004DC002AB2
:103570008BD0582A11D1A3E0642A68D0692A0CD1D3
:1035800065E0732A2ED004DC6F2A73D0702A04D130
:103590009BE0752A6FD0782A6ED01046DDE90F12B5
:1035A0009047761C50E1C4F30250022806D003284D
:1035B00009D0042801CF09D0066045E101CFF117F9
:1035C000C0E9006140E101CF06803DE106703BE1CA
:1035D00017F8040B8DF8000000208DF80100EB4671
:1035E000012003E057F804BB4FF0FF3061074FF0B4
:1035F000000102D40DE008F10101884649450FDAC7
:103600008045F8DB1BF808100029F4D108E008F128
:10361000010188468142FADB1BF808100029F6D127
:10362000DDE90F23AAEB08008146214600F036F9B8
:10363000304400EB080604E0DDE90F121BF8010B33
:103640009047B8F10108F7D221464846F7E00A2131
:10365000C4F302534FF0000B0891022B04D001CFAA
:10366000C117032B09D00AE0FF1D27F00707F7E871
:10367000020108E032E01FE020E000B2C117042B95
:1036800001D140B2C117031E71F1000307DA4FF0F8
:10369000000CD0EB0C006CEB01012D2302E02305A4
:1036A00004D52B238DF82430012303E0E30701D058
:1036B0002023F7E7984658E00A2110E010210EE099
:1036C00010204FF0000B08900CE010214FF0000B81
:1036D00044F004044FF00809089103E008214FF07A
:1036E000000B0891C4F30253022B04D001CF002138
:1036F000032B06D006E0FF1D27F00707F7E80201BD
:1037000003E080B2042B00D1C0B24FF000082307C1
:103710002BD5702A07D0DDF820C08CF0100C5CEAA5
:103720000B0C05D00EE040238DF82430012308E077
:1037300050EA010306D030238DF824308DF825207F
:1037400002239846DDF820C08CF0080C5CEA0B0CD4
:103750000BD150EA010301D1630706D530238DF860
:1037600024304FF00108A9F10109582A04D038A2E9
:103770000B9208AA0A920BE03AA2F9E75B46089A74
:10378000FCF724FD0B9B9B5C0A9A521E0A92137055
:1037900050EA0102F2D10A98ADEB000000F1200BD3
:1037A000600702D524F4803401E04FF00109D945C7
:1037B00002DDA9EB0B0000E0002000EB0B0141440F
:1037C0000890AAEB010AE00306D4DDE90F232146A5
:1037D000504600F063F806444FF0000908E009A9DC
:1037E00011F80900DDE90F12904709F10109761C73
:1037F000C145F4DBE0030CD5DDE90F23214650463B
:1038000000F04CF8064404E0DDE90F123020904748
:10381000761C0899481E08900029F5DC08E00A98F3
:103820000A990078491C0A91DDE90F129047761C2D
:10383000BBF10001ABF1010BF1DC21465046DDE9A3
:103840000F2300F019F806446D1C1BE6092801003F
:103850003031323334353637383961626364656606
:1038600000000000303132333435363738394142C8
:1038700043444546000000002DE9F0410446002580
:103880001E461746880404D405E039462020B04778
:103890006D1C641EF9D52846BDE8F0812DE9F04184
:1038A000044600251E469046C80301D5302700E097
:1038B0002027880404D505E041463846B0476D1CF2
:1038C000641EF9D52846BDE8F081000001460429B0
:1038D00001DB0020704701EB4100084A02EB800049
:1038E0004078012808D1002001EB4102034B03EB93
:1038F000820250700120EDE70020EBE7F810002075
:103900007CB505460C46284600F036F906460121EE
:10391000FDF7B0FE009401208DF8040002208DF820
:10392000050000208DF806008DF80700694628463E
:10393000FDF79BF97CBD00002DE9FC4706460D46CE
:1039400014469946304600F017F907460121FDF765
:1039500091FE1F4884420BD01E48844208D01E4866
:10396000844205D01D48844202D01D48844207D1BC
:10397000204600F043F907460121FDF79BFE06E0D3
:10398000204600F03BF907460121FDF783FE009534
:1039900002208DF8040003208DF8050000208DF82A
:1039A000060001208DF8070069463046FDF75DF9F5
:1039B000204600F039F80746284600F093F8804684
:1039C0003A4641463046FDF798F9BDE8FC870000CD
:1039D000000001400004014000400140004401405B
:1039E0000048014010B5044604B910BD012C00D1B7
:1039F00002240120FFF734FD094804600020094932
:103A00000870FFF72DFD06E000F05EF9054800782C
:103A1000012800D100E0F7E700BF00BFE5E70000A4
:103A2000000000200400002001460020224A9142AC
:103A300001D101203FE0214A914201D103203AE027
:103A40001F4A914201D1032035E01E4A914201D123
:103A5000032030E01C4A914201D103202BE0B1F158
:103A6000804F01D1012026E0184A914201D1022065
:103A700021E0174A914201D102201CE0154A9142EF
:103A800001D1022017E00D4A914201D1032012E03A
:103A90000B4A914201D103200DE00F4A914201D11E
:103AA000092008E00D4A914201D1092003E00C4AA7
:103AB000914200D1092070470000014000040140FC
:103AC0000040014000440140004801400004004023
:103AD00000080040000C004000180040001C00409E
:103AE0000020004001460020012900D142E00229C7
:103AF00001D101203EE0042901D102203AE0082949
:103B000001D1032036E0102901D1042032E0202920
:103B100001D105202EE0402901D106202AE080298C
:103B200001D1072026E0B1F5807F01D1082021E0F6
:103B3000B1F5007F01D109201CE0B1F5806F01D102
:103B40000A2017E0B1F5006F01D10B2012E0B1F5AA
:103B5000805F01D10C200DE0B1F5005F01D10D2097
:103B600008E0B1F5804F01D10E2003E0B1F5004F20
:103B700000D10F207047000001460020164A9142F4
:103B800001D1012026E0154A914201D1022021E015
:103B9000134A914201D104201CE0124A914201D102
:103BA000082017E0104A914201D1102012E00F4A7C
:103BB000914201D120200DE00D4A914201D14020D7
:103BC00008E00C4A914201D1802003E00A4A914268
:103BD00000D1881570470000000002400004024038
:103BE00000080240000C0240001002400014024095
:103BF00000180240001C0240002002400146002044
:103C0000244A914201D1012042E0234A914201D14C
:103C100002203DE0214A914202D14FF4803037E04A
:103C20001F4A914202D14FF4003031E01D4A9142C7
:103C300002D14FF480202BE0B1F1804F01D101205F
:103C400026E0194A914201D1022021E0174A91420F
:103C500001D104201CE0164A914201D1082017E04E
:103C6000144A914201D1102012E0134A914201D12D
:103C700020200DE0114A914201D1402008E0104A75
:103C8000914201D1802003E00E4A914200D1881573
:103C90007047000000000140000401400040014066
:103CA000004401400048014000040040000800407A
:103CB000000C0040001000400014004000180040BC
:103CC000001C004000200040704710B500F0B0F824
:103CD00000F060F800F038F8FDF784FA10BD00003D
:103CE0007FB501210820FDF7D5FC1448006846087F
:103CF0001348B6FBF0F085B24FF6FF740294ADF8AE
:103D000004500020ADF80C00ADF8060001A90D48E4
:103D1000FEF7B4F801210B48FDF72FFF32208DF894
:103D2000000004208DF8010000208DF80200012021
:103D30008DF803006846FDF7E3F87FBD4C000020D6
:103D400040420F00000C00401CB501210220FDF78D
:103D500091FC01208DF8040000208DF806008DF8FC
:103D6000070003208DF805000820009069460848E8
:103D7000FCF77BFF1020009069460548FCF775FFB3
:103D8000012000F05DF8022000F05AF81CBD000090
:103D90000004024070B5002416E0002004EB44014A
:103DA0001F4A02EB8101486004EB440102EB8101F0
:103DB000886004EB440102EB8101487004EB44018C
:103DC00002F82100601CC4B2042CE6DB1548006830
:103DD0004FF47A72B0FBF2F1481EB0F1807F00D34D
:103DE0001BE0481E4FF0E022506150170F220028C0
:103DF00007DA13071E0E0C4B00F00F052D1F5E5542
:103E000003E013071D0E094B1D5400BF00204FF0A7
:103E1000E02290610720106100BFFFF761FF70BDD5
:103E2000F81000204C00002018ED00E000E400E055
:103E300010B5FFF7B5FAFCF7B5FFFCF7ADFA10BD0A
:103E4000012803D10821044A118004E0022802D18C
:103E50001021014A1180704718040240012806D140
:103E60000749096881F00801054A116007E0022846
:103E700005D10349096881F01001014A11607047BA
:103E80001404024010B5FCF703FA10BD704700009F
:103E90002DE9FF4F89B0834614461D46DDE9166AB9
:103EA000BAF1000F0FD100212046FDF766FE5846FB
:103EB0000A99FFF725FD002258460A99FCF740FFB2
:103EC0000DB0BDE8F08F42F2107082450DD1002197
:103ED0002046FDF752FE58460A99FFF711FD0122D0
:103EE00058460A99FCF72CFFEAE72B46224658462B
:103EF0000A99FFF721FD494884420BD04848844283
:103F000008D04848844205D04748844202D04748F8
:103F1000844203D14648D0F8008003E0444800685A
:103F20004FEA5008642E0AD242F20F7942F2107022
:103F3000B8FBF0F0B0FBF6F0401E87B213E040F69D
:103F4000B830864209D24FF063096420B8FBF0F024
:103F5000B0FBF6F0401E87B205E04FF00009B8FB59
:103F6000F6F0401E87B20797ADF818900020ADF824
:103F70002000ADF81A0006A92046FDF77FFF60205B
:103F8000ADF804000120ADF806000AFB07F042F28C
:103F90001071B0FBF1F003900020ADF81000012D7E
:103FA00008D101A92046FDF71DFE08212046FDF796
:103FB00057FE1FE0022D08D101A92046FDF75AFE49
:103FC00008212046FDF7A8FE14E0032D08D101A921
:103FD0002046FDF7AFFE08212046FDF7FBFE09E075
:103FE000042D07D101A92046FDF7FEFE0821204639
:103FF000FDF736FF01212046FDF7B0FD01212046E7
:10400000FDF7BBFD0548844202D00548844203D138
:1040100001210248FDF7BDFD00BF51E7000001404E
:1040200000040140004001400044014000480140BC
:104030004C000020416851B14168491E416031B9CE
:10404000012141700178012901D1816841607047E7
:1040500070B504460D46042C06DB124A12A119A0C5
:10406000FFF7DCF900BFFEE70120FFF7F9F904EBE9
:1040700044001C4901EB8000456004EB440001EB67
:1040800080008560002004EB4401164A02EB8101A8
:104090004870012004EB440102F821000020FFF7E2
:1040A000DFF970BD9F4100082E2E5C2E2E5C4273FE
:1040B000705C7372635C6273705F74696D65722E9D
:1040C000630000004572726F723A2066696C652069
:1040D00025732C2066756E6374696F6E20257328B6
:1040E000290D0A00F81000202DE9F04105460E4682
:1040F00017462846FCF732F904460CB9BDE8F081B2
:10410000E06908B1E06980473A4631462046FFF74A
:104110000DF900BFF2E713B50446012201A92046BC
:10412000FFF7E2FF1CBD70B504460D46E1B2052065
:10413000FFF7F1FF204670BD08B5FFF7C6FDFDF79C
:10414000A5F94FF47A710020FFF782FFFF207F234B
:104150003F22002100900846FDF701F8FF2232219E
:104160001E20FDF7A9F8FF20282350220A210090E5
:104170001846FCF784FFFDF72BF808E0FFF7A4FDD5
:104180000020FFF7A3FB10B10220FFF767FEF5E761
:104190006273705F537461727454696D657200620A
:1041A00073705F53746172744175746F54696D6597
:1041B00072006273705F53746F7054696D65720042
:1041C000E041000800000020A80000003C34000886
:1041D00088420008A8000020805A00004C340008E3
:1041E00000000000000000000000000000000000CF
:1041F00000000000000000000000000000000000BF
:1042000000000000000000000000000000000000AE
:104210000000000000000000010000000001020397
:1042200004010203040607080900000000BD01059F
:104230000000000000000000010203040607080956
:1042400000000000CD220008FD210008E52800083C
:10425000DD26000879260008552B0008AB2600084B
:104260002D2500083F250008000000000000000088
:1042700064000020000000000000000000000000BA
:08428000000000000000000036
:040000050800019559
:00000001FF
